IDEDFXJSMZIPC                                00000000000001XJSMSUBJ               Y                                                                      
IDEDFXJSMZIPC                                00000010000001XJSMHNDLE              Y                                                                      
IDEDFXJSMZIPC                                00000020000001XJSMCMD                Y                                                                      
IDEDFXJSMZIPC                                00000030000005STD_TEXT             Y                                                                        
IDEDFXJSMZIPC                                00000040000005XJSMTRACE            Y                                                                        
IDEDFXJSMZIPC                                00000050000005XJSMMSG              Y                                                                        
IDEDFXJSMZIPC                                00000060000005XJSMSTS              Y                                                                        
IDEDFXJSMZIPC                                00000070000005XJSMSTRNG            Y                                                                        
IDEDFXJSMZIPC                                00000080000005XJSMSRVR             Y                                                                        
IDEDFXJSMZIPC                                00000090000007XJSMZIPC            Y         Addentry                                                        
IDEDFXJSMZIPC                                00000100000017*BLANKS               Y                                                                       
IDEDFXJSMZIPC                                00000110000017*ZERO                 Y                                                                       
IDEDFXJSMZIPC                                00000120000014IO$MDE                Y      A000000300                                                       
IDEDFXJSMZIPC                                00000130000014IO$STS               YY      A000000200                                                       
IDEDFXJSMZIPC                                00000140000014LISTCOUNT             Y      P000000700                                                       
IDEDFXJSMZIPC                                00000150000014STD_TEXT              Y      A000005000                                                       
IDEDFXJSMZIPC                                00000160000014XJSMCMD               Y      H000050000                                                       
IDEDFXJSMZIPC                                00000170000014XJSMHNDLE             Y      A000000400                                                       
IDEDFXJSMZIPC                                00000180000014XJSMMSG               Y      A000025500                                                       
IDEDFXJSMZIPC                                00000190000014XJSMSRVR              Y      A000005000                                                       
IDEDFXJSMZIPC                                00000200000014XJSMSTRNG             Y      H000100000                                                       
IDEDFXJSMZIPC                                00000210000014XJSMSTS               Y      A000002000                                                       
IDEDFXJSMZIPC                                00000220000014XJSMSUBJ              Y Y    A000025600                                                       
IDEDFXJSMZIPC                                00000230000014XJSMTRACE             Y      A000000600                                                       
IDEDFXJSMZIPC                                00000240000024M@SYSVAR            *LIBL                                                                     
IDEDFXJSMZIPC                                00000250000019JSMX_CLOSE                                                                                    
IDEDFXJSMZIPC                                00000260000019JSMX_COMMAND                                                                                  
IDEDFXJSMZIPC                                00000270000019JSMX_OPEN                                                                                     
IDEDFXJSMZIPW                                00000000000001XJSMSTS                Y                                                                      
IDEDFXJSMZIPW                                00000010000001XJSMMSG                Y                                                                      
IDEDFXJSMZIPW                                00000020000003XJSMZIPC            Y                                                                         
IDEDFXJSMZIPW                                00000030000005XJSMSRVR             Y                                                                        
IDEDFXJSMZIPW                                00000040000005XJSMSTRNG            Y                                                                        
IDEDFXJSMZIPW                                00000050000005XJSMSTS              Y                                                                        
IDEDFXJSMZIPW                                00000060000005XJSMMSG              Y                                                                        
IDEDFXJSMZIPW                                00000070000005XJSMTRACE            Y                                                                        
IDEDFXJSMZIPW                                00000080000007XJSMZIPC            Y         JSMOpenandLoad                                                  
IDEDFXJSMZIPW                                00000090000007XJSMZIPC            Y         ZipGetAllAsList                                                 
IDEDFXJSMZIPW                                00000100000007XJSMZIPC            Y         ZipGetPath                                                      
IDEDFXJSMZIPW                                00000110000007XJSMZIPC            Y         ZipAddFiles                                                     
IDEDFXJSMZIPW                                00000120000007XJSMZIPC            Y         ZipAddPaths                                                     
IDEDFXJSMZIPW                                00000130000007XJSMZIPC            Y         ZipGetFile                                                      
IDEDFXJSMZIPW                                00000140000007XJSMZIPC            Y         ZipDelete                                                       
IDEDFXJSMZIPW                                00000150000007XJSMZIPC            Y         ZipOpen                                                         
IDEDFXJSMZIPW                                00000160000007XJSMZIPC            Y         ZipAddPath                                                      
IDEDFXJSMZIPW                                00000170000007XJSMZIPC            Y         JSMCloseandUnload                                               
IDEDFXJSMZIPW                                00000180000007XJSMZIPC            Y         ZipAddFile                                                      
IDEDFXJSMZIPW                                00000190000017*BLANKS               Y                                                                       
IDEDFXJSMZIPW                                00000200000014IO$MDE                Y      A000000300                                                       
IDEDFXJSMZIPW                                00000210000014IO$STS               YY      A000000200                                                       
IDEDFXJSMZIPW                                00000220000014XJSMMSG               Y      A000025500                                                       
IDEDFXJSMZIPW                                00000230000014XJSMSRVR              Y      A000005000                                                       
IDEDFXJSMZIPW                                00000240000014XJSMSTRNG             Y      H000100000                                                       
IDEDFXJSMZIPW                                00000250000014XJSMSTS               Y      A000002000                                                       
IDEDFXJSMZIPW                                00000260000014XJSMTRACE             Y      A000000600                                                       
IDEDFXJSMZIPW                                00000270000024M@SYSVAR            *LIBL                                                                     
