IDEDFLETW0502                                00000000010017*BLANKS             Y                                                                         
IDEDFLETW0502                                00000010010001STD_NUM                Y                                                                      
IDEDFLETW0502                                00000020010003LETW0501             Y                                                                        
IDEDFLETW0502                                00000030010003STD_TEXT             Y                                                                        
IDEDFLETW0202                                00000000010017*BLANKS             Y                                                                         
IDEDFLETW0202                                00000010010003LETW0201             Y                                                                        
IDEDFLETW0202                                00000020010001STD_NUM                Y                                                                      
IDEDFLETW0202                                00000030010003STD_TEXT             Y                                                                        
IDEDFLETW0504                                00000000010003LETW0502            Y                                                                         
IDEDFLETW0204                                00000000010003LETW0202            Y                                                                         
