IDEXJSMZIPC  000000000000010000000   000Function  0000016Options(*Direct)                                                                                    
IDEXJSMZIPC  000000000000020000000   000Begin_Com 0000025Role(*EXTENDS #PRIM_OBJT)                                                                           
IDEXJSMZIPC  000000000000030000000   000          0000000                                                                                                    
IDEXJSMZIPC  000000000000040000000   035Define_Com0000084Class(#prim_lcol<#Prim_alph>) Name(#PathsorFiles)00359980120161117                                  
IDEXJSMZIPC  000000000000050000000   035          000003500359980120161117                                                                                   
IDEXJSMZIPC  000000000000060000001   035Def_List  0000100Name(#Processing) Fields(#xjsmsubject) Counter(#listcount) Type(*Working)00359980120170725          
IDEXJSMZIPC  000000000000060000002   000          0000008                                                                                                    
IDEXJSMZIPC  000000000000070000000   035          000003500359980120161117                                                                                   
IDEXJSMZIPC  000000000000080000000   000Mthroutine0000075Name(JSMOpenandLoad) Help('Open JSM Server connection and load ZipService')                         
IDEXJSMZIPC  000000000000090000001   035Define_Map0000100For(*Input) Class(#xjsmserver) Name(#Server) Mandatory('') Help('Server (host:port). If no server ar
IDEXJSMZIPC  000000000000090000002   000          0000100gument is supplied, then the JSM server host is obtained by reading the JSMCLTDTA data area.')003599
IDEXJSMZIPC  000000000000090000003   000          000002980120170725                                                                                         
IDEXJSMZIPC  000000000000100000001   035Define_Map0000100For(*Input) Class(#xjsmtrace) Name(#Trace) Mandatory('*NO') Help('Enable tracing from the client pro
IDEXJSMZIPC  000000000000100000002   000          0000061gram - *NO, *YES, *ERROR')00359980120170725                                                         
IDEXJSMZIPC  000000000000110000001   035Define_Map0000100For(*Output) Class(#xjsmstatus) Name(#Status) Help('Return Status from last JSMX_* built in function
IDEXJSMZIPC  000000000000110000002   000          0000046 executed')00359980120170725                                                                        
IDEXJSMZIPC  000000000000120000001   035Define_Map0000100For(*Output) Class(#xjsmmessage) Name(#Message) Help('Message associated with return status')0035998
IDEXJSMZIPC  000000000000120000002   000          00000280120170725                                                                                          
IDEXJSMZIPC  000000000000130000001   035Define_Map0000100For(*Result) Class(#prim_boln) Name(#Result) Help('Boolean indicating if routine completed successfu
IDEXJSMZIPC  000000000000130000002   000          0000040lly')00359980120161117                                                                              
IDEXJSMZIPC  000000000000140000000   000          0000000                                                                                                    
IDEXJSMZIPC  000000000000150000000   000_ASSIGN   0000016#Result := False                                                                                    
IDEXJSMZIPC  000000000000160000000   000          0000000                                                                                                    
IDEXJSMZIPC  000000000000170000000   035**********0000051Start JSM server00359980120170105                                                                   
IDEXJSMZIPC  000000000000180000001   035Use       0000100Builtin(jsmx_open) With_Args(#Server) To_Get(#Status #Message #xjsmhandle)00359980120170725         
IDEXJSMZIPC  000000000000180000002   000          0000009                                                                                                    
IDEXJSMZIPC  000000000000190000000   000          0000000                                                                                                    
IDEXJSMZIPC  000000000000200000000   000If        0000015(#Status <> OK)                                                                                     
IDEXJSMZIPC  000000000000210000000   000          0000000                                                                                                    
IDEXJSMZIPC  000000000000220000000   000Return    0000000                                                                                                    
IDEXJSMZIPC  000000000000230000000   000          0000000                                                                                                    
IDEXJSMZIPC  000000000000240000000   000Endif     0000000                                                                                                    
IDEXJSMZIPC  000000000000250000000   000          0000000                                                                                                    
IDEXJSMZIPC  000000000000260000000   000**********0000019Load the ZipService                                                                                 
IDEXJSMZIPC  000000000000270000001   035_ASSIGN   0000100#xjsmcmd := 'service_load service(zipservice) trace(' + #Trace + ')'00359980120170725               
IDEXJSMZIPC  000000000000270000002   000          0000003                                                                                                    
IDEXJSMZIPC  000000000000280000001   035Use       0000100Builtin(jsmx_command) With_Args(#xjsmhandle #xjsmcmd) To_Get(#Status #Message)00359980120170725     
IDEXJSMZIPC  000000000000280000002   000          0000013                                                                                                    
IDEXJSMZIPC  000000000000290000000   000          0000000                                                                                                    
IDEXJSMZIPC  000000000000300000000   000If        0000014(#Status = OK)                                                                                      
IDEXJSMZIPC  000000000000310000000   000          0000000                                                                                                    
IDEXJSMZIPC  000000000000320000000   000_ASSIGN   0000015#Result := True                                                                                     
IDEXJSMZIPC  000000000000330000000   000          0000000                                                                                                    
IDEXJSMZIPC  000000000000340000000   000Endif     0000000                                                                                                    
IDEXJSMZIPC  000000000000350000000   000          0000000                                                                                                    
IDEXJSMZIPC  000000000000360000000   000Endroutine0000000                                                                                                    
IDEXJSMZIPC  000000000000370000000   000          0000000                                                                                                    
IDEXJSMZIPC  000000000000380000001   000Mthroutine0000100Name(ZipCreate) Help('Create an archive file and make it the current archive for this instance of th
IDEXJSMZIPC  000000000000380000002   000          0000014e ZipService')                                                                                      
IDEXJSMZIPC  000000000000390000001   035Define_Map0000100For(*Input) Class(#xjsmstring) Name(#FileName) Help('File path of the archive to be created. If no p
IDEXJSMZIPC  000000000000390000002   000          0000100ath, or a relative path, is specified the file will be created relative to the JSM instance director
IDEXJSMZIPC  000000000000390000003   000          0000100y. The file extension should be .zip to ensure the file can be correctly recognized and processed by
IDEXJSMZIPC  000000000000390000004   000          0000057 other applications.')00359980120170725                                                             
IDEXJSMZIPC  000000000000400000001   035Define_Map0000100For(*Output) Class(#xjsmstatus) Name(#Status) Help('Return Status from last JSMX_* built in function
IDEXJSMZIPC  000000000000400000002   000          0000046 executed')00359980120170725                                                                        
IDEXJSMZIPC  000000000000410000001   035Define_Map0000100For(*Output) Class(#xjsmmessage) Name(#Message) Help('Message associated with return status')0035998
IDEXJSMZIPC  000000000000410000002   000          00000280120170725                                                                                          
IDEXJSMZIPC  000000000000420000001   035Define_Map0000100For(*Result) Class(#prim_boln) Name(#Result) Help('Boolean indicating if routine completed successfu
IDEXJSMZIPC  000000000000420000002   000          0000040lly')00359980120161117                                                                              
IDEXJSMZIPC  000000000000430000000   000          0000000                                                                                                    
IDEXJSMZIPC  000000000000440000000   000_ASSIGN   0000016#Result := False                                                                                    
IDEXJSMZIPC  000000000000450000000   000          0000000                                                                                                    
IDEXJSMZIPC  000000000000460000000   035_ASSIGN   0000079#xjsmcmd := 'create file(' + #FileName + ')'00359980120170725                                       
IDEXJSMZIPC  000000000000470000001   035Use       0000100Builtin(jsmx_command) With_Args(#xjsmhandle #xjsmcmd) To_Get(#Status #Message)00359980120170725     
IDEXJSMZIPC  000000000000470000002   000          0000013                                                                                                    
IDEXJSMZIPC  000000000000480000000   000          0000000                                                                                                    
IDEXJSMZIPC  000000000000490000000   000If        0000014(#Status = OK)                                                                                      
IDEXJSMZIPC  000000000000500000000   000          0000000                                                                                                    
IDEXJSMZIPC  000000000000510000000   000_ASSIGN   0000015#Result := True                                                                                     
IDEXJSMZIPC  000000000000520000000   000          0000000                                                                                                    
IDEXJSMZIPC  000000000000530000000   000Endif     0000000                                                                                                    
IDEXJSMZIPC  000000000000540000000   000          0000000                                                                                                    
IDEXJSMZIPC  000000000000550000000   000Endroutine0000000                                                                                                    
IDEXJSMZIPC  000000000000560000000   000          0000000                                                                                                    
IDEXJSMZIPC  000000000000570000000   000Mthroutine0000079Name(ZipOpen) Help('Open an existing zip file and make it the current archive')                     
IDEXJSMZIPC  000000000000580000001   035Define_Map0000100For(*Input) Class(#xjsmstring) Name(#FileName) Help('File path of the archive to be opened. If no pa
IDEXJSMZIPC  000000000000580000002   000          0000100th, or a relative path, is specified the file will be created relative to the JSM instance directory
IDEXJSMZIPC  000000000000580000003   000          0000038.')00359980120170725                                                                                
IDEXJSMZIPC  000000000000590000001   000Define_Map0000100For(*Input) Class(#std_text) Name(#Mode) Mandatory('*READ') Help('Open archive for reading or writin
IDEXJSMZIPC  000000000000590000002   000          0000100g. Default *READ supports opening an existing archive to interrogate its contents .  Value *WRITE al
IDEXJSMZIPC  000000000000590000003   000          0000100lows new files to be added to the archive. If the file is opened for writing and it does not exist a
IDEXJSMZIPC  000000000000590000004   000          0000042 new archive is created. - *READ, *WRITE')                                                          
IDEXJSMZIPC  000000000000600000001   000Define_Map0000100For(*Input) Class(#std_text) Name(#Replace) Mandatory('*NO') Help('Used in combination with MODE(*WR
IDEXJSMZIPC  000000000000600000002   000          0000100ITE) to indicate if contents of the existing file can be replaced. Default value *NO indicates that 
IDEXJSMZIPC  000000000000600000003   000          0000100the contents of the archive are not cleared when the file is opened. A value of *YES indicates that 
IDEXJSMZIPC  000000000000600000004   000          0000087the existing contents of the archive are cleared when the file is opened. - *NO, *YES')             
IDEXJSMZIPC  000000000000610000001   035Define_Map0000100For(*Output) Class(#xjsmstatus) Name(#Status) Help('Return Status from last JSMX_* built in function
IDEXJSMZIPC  000000000000610000002   000          0000046 executed')00359980120170725                                                                        
IDEXJSMZIPC  000000000000620000001   035Define_Map0000100For(*Output) Class(#xjsmmessage) Name(#Message) Help('Message associated with return status')0035998
IDEXJSMZIPC  000000000000620000002   000          00000280120170725                                                                                          
IDEXJSMZIPC  000000000000630000001   035Define_Map0000100For(*Result) Class(#prim_boln) Name(#Result) Help('Boolean indicating if routine completed successfu
IDEXJSMZIPC  000000000000630000002   000          0000040lly')00359980120161117                                                                              
IDEXJSMZIPC  000000000000640000000   000          0000000                                                                                                    
IDEXJSMZIPC  000000000000650000000   000_ASSIGN   0000016#Result := False                                                                                    
IDEXJSMZIPC  000000000000660000000   000          0000000                                                                                                    
IDEXJSMZIPC  000000000000670000000   000**********0000029open the current archive file                                                                       
IDEXJSMZIPC  000000000000680000001   035_ASSIGN   0000100#xjsmcmd := 'open file(' + #FileName + ') mode(' + #Mode + ') replace(' + #Replace + ')'003599801201
IDEXJSMZIPC  000000000000680000002   000          000002370725                                                                                               
IDEXJSMZIPC  000000000000690000001   035Use       0000100Builtin(jsmx_command) With_Args(#xjsmhandle #xjsmcmd) To_Get(#Status #Message)00359980120170725     
IDEXJSMZIPC  000000000000690000002   000          0000013                                                                                                    
IDEXJSMZIPC  000000000000700000000   000          0000000                                                                                                    
IDEXJSMZIPC  000000000000710000000   000If        0000014(#Status = OK)                                                                                      
IDEXJSMZIPC  000000000000720000000   000          0000000                                                                                                    
IDEXJSMZIPC  000000000000730000000   000_ASSIGN   0000015#Result := True                                                                                     
IDEXJSMZIPC  000000000000740000000   000          0000000                                                                                                    
IDEXJSMZIPC  000000000000750000000   000Endif     0000000                                                                                                    
IDEXJSMZIPC  000000000000760000000   000          0000000                                                                                                    
IDEXJSMZIPC  000000000000770000000   000Endroutine0000000                                                                                                    
IDEXJSMZIPC  000000000000780000000   000          0000000                                                                                                    
IDEXJSMZIPC  000000000000790000001   000Mthroutine0000100Name(ZipAddFile) Help('Add a single file to the current archive (the archive last successfully opene
IDEXJSMZIPC  000000000000790000002   000          0000079d using the CREATE or OPEN command) in the current instance of the ZipService')                     
IDEXJSMZIPC  000000000000800000001   035Define_Map0000100For(*Input) Class(#xjsmstring) Name(#FileName) Help('File name to be added to the current archive')0
IDEXJSMZIPC  000000000000800000002   000          00000340359980120170725                                                                                    
IDEXJSMZIPC  000000000000810000001   035Define_Map0000100For(*Output) Class(#xjsmstatus) Name(#Status) Help('Return Status from last JSMX_* built in function
IDEXJSMZIPC  000000000000810000002   000          0000046 executed')00359980120170725                                                                        
IDEXJSMZIPC  000000000000820000001   035Define_Map0000100For(*Output) Class(#xjsmmessage) Name(#Message) Help('Message associated with return status')0035998
IDEXJSMZIPC  000000000000820000002   000          00000280120170725                                                                                          
IDEXJSMZIPC  000000000000830000001   035Define_Map0000100For(*Result) Class(#prim_boln) Name(#Result) Help('Boolean indicating if routine completed successfu
IDEXJSMZIPC  000000000000830000002   000          0000040lly')00359980120161117                                                                              
IDEXJSMZIPC  000000000000840000000   000          0000000                                                                                                    
IDEXJSMZIPC  000000000000850000000   000_ASSIGN   0000016#Result := False                                                                                    
IDEXJSMZIPC  000000000000860000000   000          0000000                                                                                                    
IDEXJSMZIPC  000000000000870000000   000**********0000045add the specified file to the current archive                                                       
IDEXJSMZIPC  000000000000880000000   035_ASSIGN   0000076#xjsmcmd := 'add file(' + #FileName + ')'00359980120170725                                          
IDEXJSMZIPC  000000000000890000001   035Use       0000100Builtin(jsmx_command) With_Args(#xjsmhandle #xjsmcmd) To_Get(#Status #Message)00359980120170725     
IDEXJSMZIPC  000000000000890000002   000          0000013                                                                                                    
IDEXJSMZIPC  000000000000900000000   000          0000000                                                                                                    
IDEXJSMZIPC  000000000000910000000   000If        0000014(#Status = OK)                                                                                      
IDEXJSMZIPC  000000000000920000000   000          0000000                                                                                                    
IDEXJSMZIPC  000000000000930000000   000_ASSIGN   0000015#Result := True                                                                                     
IDEXJSMZIPC  000000000000940000000   000          0000000                                                                                                    
IDEXJSMZIPC  000000000000950000000   000Endif     0000000                                                                                                    
IDEXJSMZIPC  000000000000960000000   000          0000000                                                                                                    
IDEXJSMZIPC  000000000000970000000   000Endroutine0000000                                                                                                    
IDEXJSMZIPC  000000000000980000000   000          0000000                                                                                                    
IDEXJSMZIPC  000000000000990000001   000Mthroutine0000100Name(ZipAddFiles) Help('Adds a collection of files to the current archive (the archive last successf
IDEXJSMZIPC  000000000000990000002   000          0000090ully opened using the CREATE or OPEN command) in the current instance of the ZipService.')          
IDEXJSMZIPC  000000000001000000001   035Define_Map0000100For(*Input) Class(#prim_lcol<#prim_alph>) Name(#Files) Help('Collection of file names #prim_lcol<#pr
IDEXJSMZIPC  000000000001000000002   000          0000100im_alph> to be added to the current archive') Pass(*By_Reference)00359980120161117                  
IDEXJSMZIPC  000000000001010000001   035Define_Map0000100For(*Output) Class(#xjsmstatus) Name(#Status) Help('Return Status from last JSMX_* built in function
IDEXJSMZIPC  000000000001010000002   000          0000046 executed')00359980120170725                                                                        
IDEXJSMZIPC  000000000001020000001   035Define_Map0000100For(*Output) Class(#xjsmmessage) Name(#Message) Help('Message associated with return status')0035998
IDEXJSMZIPC  000000000001020000002   000          00000280120170725                                                                                          
IDEXJSMZIPC  000000000001030000001   035Define_Map0000100For(*Result) Class(#prim_boln) Name(#Result) Help('Boolean indicating if routine completed successfu
IDEXJSMZIPC  000000000001030000002   000          0000040lly')00359980120161117                                                                              
IDEXJSMZIPC  000000000001040000000   000          0000000                                                                                                    
IDEXJSMZIPC  000000000001050000000   000_ASSIGN   0000016#Result := False                                                                                    
IDEXJSMZIPC  000000000001060000000   000          0000000                                                                                                    
IDEXJSMZIPC  000000000001070000000   000Clr_List  0000018Named(#Processing)                                                                                  
IDEXJSMZIPC  000000000001080000000   000          0000000                                                                                                    
IDEXJSMZIPC  000000000001090000000   000For       0000022Each(#file) In(#Files)                                                                              
IDEXJSMZIPC  000000000001100000000   000          0000000                                                                                                    
IDEXJSMZIPC  000000000001110000000   035_ASSIGN   0000072#xjsmsubject := #file.Value.LowerCase00359980120170725                                              
IDEXJSMZIPC  000000000001120000000   000Add_Entry 0000020To_List(#Processing)                                                                                
IDEXJSMZIPC  000000000001130000000   035          000003500359980120170124                                                                                   
IDEXJSMZIPC  000000000001140000000   035Endfor    000003500359980120170124                                                                                   
IDEXJSMZIPC  000000000001150000000   035          000003500359980120170124                                                                                   
IDEXJSMZIPC  000000000001160000000   035**********0000081add the specified files to the current archive00359980120170124                                     
IDEXJSMZIPC  000000000001170000000   035**********0000096NOTE - strangely the list must be passed as in to_get values!00359980120161117                      
IDEXJSMZIPC  000000000001180000000   035_ASSIGN   0000064#xjsmcmd := 'add file(*list)'00359980120170725                                                      
IDEXJSMZIPC  000000000001190000001   035Use       0000100Builtin(jsmx_command) With_Args(#xjsmhandle #xjsmcmd) To_Get(#Status #Message #Processing)0035998012
IDEXJSMZIPC  000000000001190000002   000          00000250170725                                                                                             
IDEXJSMZIPC  000000000001200000000   000          0000000                                                                                                    
IDEXJSMZIPC  000000000001210000000   000If        0000014(#Status = OK)                                                                                      
IDEXJSMZIPC  000000000001220000000   000          0000000                                                                                                    
IDEXJSMZIPC  000000000001230000000   000_ASSIGN   0000015#Result := True                                                                                     
IDEXJSMZIPC  000000000001240000000   000          0000000                                                                                                    
IDEXJSMZIPC  000000000001250000000   000Endif     0000000                                                                                                    
IDEXJSMZIPC  000000000001260000000   000          0000000                                                                                                    
IDEXJSMZIPC  000000000001270000000   000Endroutine0000000                                                                                                    
IDEXJSMZIPC  000000000001280000000   000          0000000                                                                                                    
IDEXJSMZIPC  000000000001290000001   000Mthroutine0000100Name(ZipAddPath) Help('Adds the files from a directory to the current archive (the archive last succ
IDEXJSMZIPC  000000000001290000002   000          0000094essfully opened using the CREATE or OPEN command) in the current instance of the ZipService.')      
IDEXJSMZIPC  000000000001300000001   035Define_Map0000100For(*Input) Class(#xjsmstring) Name(#Path) Help('Specifies the path of a directory to be added to th
IDEXJSMZIPC  000000000001300000002   000          0000055e current archive.')00359980120170725                                                               
IDEXJSMZIPC  000000000001310000001   035Define_Map0000100For(*Input) Class(#xjsmstring) Name(#Base) Mandatory('*NONE') Help('Nominate a path to be used as th
IDEXJSMZIPC  000000000001310000002   000          0000100e relative path for all files in the zip archive - *NONE, *CURRENT, *PARENT, <path>')003599801201707
IDEXJSMZIPC  000000000001310000003   000          000002025                                                                                                  
IDEXJSMZIPC  000000000001320000001   035Define_Map0000100For(*Input) Class(#xjsmstring) Name(#Tree) Mandatory('*YES') Help('Specifies whether the add operati
IDEXJSMZIPC  000000000001320000002   000          0000100ons should recursively traverse sub-directories of the directory(s) specified - *YES, *NO')003599801
IDEXJSMZIPC  000000000001320000003   000          000002620170725                                                                                            
IDEXJSMZIPC  000000000001330000001   035Define_Map0000100For(*Output) Class(#xjsmstatus) Name(#Status) Help('Return Status from last JSMX_* built in function
IDEXJSMZIPC  000000000001330000002   000          0000046 executed')00359980120170725                                                                        
IDEXJSMZIPC  000000000001340000001   035Define_Map0000100For(*Output) Class(#xjsmmessage) Name(#Message) Help('Message associated with return status')0035998
IDEXJSMZIPC  000000000001340000002   000          00000280120170725                                                                                          
IDEXJSMZIPC  000000000001350000001   035Define_Map0000100For(*Result) Class(#prim_boln) Name(#Result) Help('Boolean indicating if routine completed successfu
IDEXJSMZIPC  000000000001350000002   000          0000040lly')00359980120161117                                                                              
IDEXJSMZIPC  000000000001360000000   000          0000000                                                                                                    
IDEXJSMZIPC  000000000001370000000   000_ASSIGN   0000016#Result := False                                                                                    
IDEXJSMZIPC  000000000001380000000   000          0000000                                                                                                    
IDEXJSMZIPC  000000000001390000000   035**********0000080add the specified path to the current archive00359980120170105                                      
IDEXJSMZIPC  000000000001400000001   035_ASSIGN   0000100#xjsmcmd := 'add path(' + #Path + ') Base(' + #Base + ') Tree (' + #Tree + ')'00359980120170725     
IDEXJSMZIPC  000000000001400000002   000          0000013                                                                                                    
IDEXJSMZIPC  000000000001410000000   035          000003500359980120170119                                                                                   
IDEXJSMZIPC  000000000001420000001   035Use       0000100Builtin(jsmx_command) With_Args(#xjsmhandle #xjsmcmd) To_Get(#Status #Message)00359980120170725     
IDEXJSMZIPC  000000000001420000002   000          0000013                                                                                                    
IDEXJSMZIPC  000000000001430000000   000          0000000                                                                                                    
IDEXJSMZIPC  000000000001440000000   000If        0000014(#Status = OK)                                                                                      
IDEXJSMZIPC  000000000001450000000   000          0000000                                                                                                    
IDEXJSMZIPC  000000000001460000000   000_ASSIGN   0000015#Result := True                                                                                     
IDEXJSMZIPC  000000000001470000000   000          0000000                                                                                                    
IDEXJSMZIPC  000000000001480000000   000Endif     0000000                                                                                                    
IDEXJSMZIPC  000000000001490000000   000          0000000                                                                                                    
IDEXJSMZIPC  000000000001500000000   000Endroutine0000000                                                                                                    
IDEXJSMZIPC  000000000001510000000   000          0000000                                                                                                    
IDEXJSMZIPC  000000000001520000001   000Mthroutine0000100Name(ZipAddPaths) Help('Adds the files from a collection of directories to the current archive (the 
IDEXJSMZIPC  000000000001520000002   000          0000100archive last successfully opened using the CREATE or OPEN command) in the current instance of the Zi
IDEXJSMZIPC  000000000001520000003   000          0000011pService.')                                                                                         
IDEXJSMZIPC  000000000001530000001   035Define_Map0000100For(*Input) Class(#prim_lcol<#prim_alph>) Name(#Paths) Help('Collection of path names #prim_lcol<#pr
IDEXJSMZIPC  000000000001530000002   000          0000100im_alph> to be added to the current archive') Pass(*By_Reference)00359980120161117                  
IDEXJSMZIPC  000000000001540000001   035Define_Map0000100For(*Input) Class(#std_text) Name(#Base) Mandatory('*NONE') Help('Nominate a path to be used as the 
IDEXJSMZIPC  000000000001540000002   000          0000100relative path for all files in the zip archive - *NONE, *CURRENT, *PARENT, <path>')00359980120161117
IDEXJSMZIPC  000000000001540000003   000          0000018                                                                                                    
IDEXJSMZIPC  000000000001550000001   035Define_Map0000100For(*Input) Class(#std_text) Name(#Tree) Mandatory('*YES') Help('Specifies whether the add operation
IDEXJSMZIPC  000000000001550000002   000          0000100s should recursively traverse sub-directories of the directory(s) specified - *YES, *NO')00359980120
IDEXJSMZIPC  000000000001550000003   000          0000024161117                                                                                              
IDEXJSMZIPC  000000000001560000001   035Define_Map0000100For(*Output) Class(#xjsmstatus) Name(#Status) Help('Return Status from last JSMX_* built in function
IDEXJSMZIPC  000000000001560000002   000          0000046 executed')00359980120170725                                                                        
IDEXJSMZIPC  000000000001570000001   035Define_Map0000100For(*Output) Class(#xjsmmessage) Name(#Message) Help('Message associated with return status')0035998
IDEXJSMZIPC  000000000001570000002   000          00000280120170725                                                                                          
IDEXJSMZIPC  000000000001580000001   035Define_Map0000100For(*Result) Class(#prim_boln) Name(#Result) Help('Boolean indicating if routine completed successfu
IDEXJSMZIPC  000000000001580000002   000          0000040lly')00359980120161117                                                                              
IDEXJSMZIPC  000000000001590000000   000          0000000                                                                                                    
IDEXJSMZIPC  000000000001600000000   000_ASSIGN   0000016#Result := False                                                                                    
IDEXJSMZIPC  000000000001610000000   000          0000000                                                                                                    
IDEXJSMZIPC  000000000001620000000   000Clr_List  0000018Named(#Processing)                                                                                  
IDEXJSMZIPC  000000000001630000000   035          000003500359980120161117                                                                                   
IDEXJSMZIPC  000000000001640000000   000For       0000022Each(#path) In(#Paths)                                                                              
IDEXJSMZIPC  000000000001650000000   035          000003500359980120161117                                                                                   
IDEXJSMZIPC  000000000001660000000   035_ASSIGN   0000072#xjsmsubject := #path.Value.LowerCase00359980120170725                                              
IDEXJSMZIPC  000000000001670000000   035Add_Entry 0000055To_List(#Processing)00359980120161117                                                               
IDEXJSMZIPC  000000000001680000000   000          0000000                                                                                                    
IDEXJSMZIPC  000000000001690000000   000Endfor    0000000                                                                                                    
IDEXJSMZIPC  000000000001700000000   000          0000000                                                                                                    
IDEXJSMZIPC  000000000001710000000   035**********0000081add the specified paths to the current archive00359980120170105                                     
IDEXJSMZIPC  000000000001720000001   035_ASSIGN   0000100#xjsmcmd := 'add path( *list ) Base(' + #Base + ') Tree (' + #Tree + ')'00359980120170725           
IDEXJSMZIPC  000000000001720000002   000          0000007                                                                                                    
IDEXJSMZIPC  000000000001730000001   035Use       0000100Builtin(jsmx_command) With_Args(#xjsmhandle #xjsmcmd) To_Get(#Status #Message #processing)0035998012
IDEXJSMZIPC  000000000001730000002   000          00000250170725                                                                                             
IDEXJSMZIPC  000000000001740000000   000          0000000                                                                                                    
IDEXJSMZIPC  000000000001750000000   000If        0000014(#Status = OK)                                                                                      
IDEXJSMZIPC  000000000001760000000   000          0000000                                                                                                    
IDEXJSMZIPC  000000000001770000000   000_ASSIGN   0000015#Result := True                                                                                     
IDEXJSMZIPC  000000000001780000000   000          0000000                                                                                                    
IDEXJSMZIPC  000000000001790000000   000Endif     0000000                                                                                                    
IDEXJSMZIPC  000000000001800000000   000          0000000                                                                                                    
IDEXJSMZIPC  000000000001810000000   000Endroutine0000000                                                                                                    
IDEXJSMZIPC  000000000001820000000   000          0000000                                                                                                    
IDEXJSMZIPC  000000000001830000001   000Mthroutine0000100Name(ZipDelete) Help('Deletes the specified file. If you do not specify the path, or if you specify 
IDEXJSMZIPC  000000000001830000002   000          0000100a relative path, the ZipService attempts to delete the file relative to the JSM instance directory.'
IDEXJSMZIPC  000000000001830000003   000          0000001)                                                                                                   
IDEXJSMZIPC  000000000001840000001   035Define_Map0000100For(*Input) Class(#xjsmstring) Name(#FileName) Help('The path (optional) and name of the file to be 
IDEXJSMZIPC  000000000001840000002   000          0000045deleted.')00359980120170725                                                                         
IDEXJSMZIPC  000000000001850000001   035Define_Map0000100For(*Output) Class(#xjsmstatus) Name(#Status) Help('Return Status from last JSMX_* built in function
IDEXJSMZIPC  000000000001850000002   000          0000046 executed')00359980120170725                                                                        
IDEXJSMZIPC  000000000001860000001   035Define_Map0000100For(*Output) Class(#xjsmmessage) Name(#Message) Help('Message associated with return status')0035998
IDEXJSMZIPC  000000000001860000002   000          00000280120170725                                                                                          
IDEXJSMZIPC  000000000001870000001   035Define_Map0000100For(*Result) Class(#prim_boln) Name(#Result) Help('Boolean indicating if routine completed successfu
IDEXJSMZIPC  000000000001870000002   000          0000040lly')00359980120161117                                                                              
IDEXJSMZIPC  000000000001880000000   000          0000000                                                                                                    
IDEXJSMZIPC  000000000001890000000   000_ASSIGN   0000016#Result := False                                                                                    
IDEXJSMZIPC  000000000001900000000   000          0000000                                                                                                    
IDEXJSMZIPC  000000000001910000000   035_ASSIGN   0000079#xjsmcmd := 'delete file(' + #FileName + ')'00359980120170725                                       
IDEXJSMZIPC  000000000001920000001   035Use       0000100Builtin(jsmx_command) With_Args(#xjsmhandle #xjsmcmd) To_Get(#Status #Message)00359980120170725     
IDEXJSMZIPC  000000000001920000002   000          0000013                                                                                                    
IDEXJSMZIPC  000000000001930000000   000          0000000                                                                                                    
IDEXJSMZIPC  000000000001940000000   000If        0000014(#Status = OK)                                                                                      
IDEXJSMZIPC  000000000001950000000   000          0000000                                                                                                    
IDEXJSMZIPC  000000000001960000000   000_ASSIGN   0000015#Result := True                                                                                     
IDEXJSMZIPC  000000000001970000000   000          0000000                                                                                                    
IDEXJSMZIPC  000000000001980000000   000Endif     0000000                                                                                                    
IDEXJSMZIPC  000000000001990000000   000          0000000                                                                                                    
IDEXJSMZIPC  000000000002000000000   000Endroutine0000000                                                                                                    
IDEXJSMZIPC  000000000002010000000   000          0000000                                                                                                    
IDEXJSMZIPC  000000000002020000000   000Mthroutine0000081Name(ZipGetAllAsList) Help('Returns a collection with all the zip file entries.')                   
IDEXJSMZIPC  000000000002030000001   035Define_Map0000100For(*Output) Class(#prim_lcol<#prim_alph>) Name(#Files) Help('Collection of file names #prim_lcol<#p
IDEXJSMZIPC  000000000002030000002   000          0000100rim_alph> returned from the current archive') Pass(*By_Reference)00359980120161117                  
IDEXJSMZIPC  000000000002040000001   035Define_Map0000100For(*Output) Class(#xjsmstatus) Name(#Status) Help('Return Status from last JSMX_* built in function
IDEXJSMZIPC  000000000002040000002   000          0000046 executed')00359980120170725                                                                        
IDEXJSMZIPC  000000000002050000001   035Define_Map0000100For(*Output) Class(#xjsmmessage) Name(#Message) Help('Message associated with return status')0035998
IDEXJSMZIPC  000000000002050000002   000          00000280120170725                                                                                          
IDEXJSMZIPC  000000000002060000001   035Define_Map0000100For(*Result) Class(#prim_boln) Name(#Result) Help('Boolean indicating if routine completed successfu
IDEXJSMZIPC  000000000002060000002   000          0000040lly')00359980120161117                                                                              
IDEXJSMZIPC  000000000002070000000   000          0000000                                                                                                    
IDEXJSMZIPC  000000000002080000000   000Define_Com0000036Class(#prim_alph) Name(#CurrentFile)                                                                
IDEXJSMZIPC  000000000002090000000   000          0000000                                                                                                    
IDEXJSMZIPC  000000000002100000000   000_ASSIGN   0000016#Result := False                                                                                    
IDEXJSMZIPC  000000000002110000000   000          0000000                                                                                                    
IDEXJSMZIPC  000000000002120000000   035_ASSIGN   0000065#xjsmcmd := 'get entry(*LIST)'00359980120170725                                                     
IDEXJSMZIPC  000000000002130000001   035Use       0000100Builtin(jsmx_command) With_Args(#xjsmhandle #xjsmcmd) To_Get(#Status #Message #Processing)0035998012
IDEXJSMZIPC  000000000002130000002   000          00000250170725                                                                                             
IDEXJSMZIPC  000000000002140000000   000          0000000                                                                                                    
IDEXJSMZIPC  000000000002150000000   000If        0000014(#Status = OK)                                                                                      
IDEXJSMZIPC  000000000002160000000   000          0000000                                                                                                    
IDEXJSMZIPC  000000000002170000000   000_ASSIGN   0000015#Result := True                                                                                     
IDEXJSMZIPC  000000000002180000000   035          000003500359980120161117                                                                                   
IDEXJSMZIPC  000000000002190000000   035_INVOKE   0000058#PathsorFiles.RemoveAll00359980120161117                                                            
IDEXJSMZIPC  000000000002200000000   035          000003500359980120161117                                                                                   
IDEXJSMZIPC  000000000002210000000   000Selectlist0000018Named(#Processing)                                                                                  
IDEXJSMZIPC  000000000002220000000   000          0000000                                                                                                    
IDEXJSMZIPC  000000000002230000000   035_PERFORM  0000070#com_owner.Addentry( #xjsmsubject )00359980120170725                                                
IDEXJSMZIPC  000000000002240000000   000          0000000                                                                                                    
IDEXJSMZIPC  000000000002250000000   000Endselect 0000000                                                                                                    
IDEXJSMZIPC  000000000002260000000   000          0000000                                                                                                    
IDEXJSMZIPC  000000000002270000000   000_ASSIGN   0000023#Files <= #PathsorFiles                                                                             
IDEXJSMZIPC  000000000002280000000   000          0000000                                                                                                    
IDEXJSMZIPC  000000000002290000000   000Endif     0000000                                                                                                    
IDEXJSMZIPC  000000000002300000000   000          0000000                                                                                                    
IDEXJSMZIPC  000000000002310000000   000Endroutine0000000                                                                                                    
IDEXJSMZIPC  000000000002320000000   000          0000000                                                                                                    
IDEXJSMZIPC  000000000002330000000   000Mthroutine0000014Name(Addentry)                                                                                      
IDEXJSMZIPC  000000000002340000000   000Define_Map0000048For(*Input) Class(#prim_alph) Name(#currentFile)                                                    
IDEXJSMZIPC  000000000002350000000   000          0000000                                                                                                    
IDEXJSMZIPC  000000000002360000000   000_PERFORM  0000036#PathsorFiles.Insert( #currentFile )                                                                
IDEXJSMZIPC  000000000002370000000   000          0000000                                                                                                    
IDEXJSMZIPC  000000000002380000000   000Endroutine0000000                                                                                                    
IDEXJSMZIPC  000000000002390000000   000          0000000                                                                                                    
IDEXJSMZIPC  000000000002400000000   000Mthroutine0000016Name(ZipGetPath)                                                                                    
IDEXJSMZIPC  000000000002410000001   035Define_Map0000100For(*Input) Class(#xjsmstring) Name(#Path) Mandatory('*ALL') Help('Path is compared against the full
IDEXJSMZIPC  000000000002410000002   000          0000100 path of the zip file entries to select those that are to be extracted - *ALL, <path>')0035998012017
IDEXJSMZIPC  000000000002410000003   000          00000220725                                                                                                
IDEXJSMZIPC  000000000002420000001   035Define_Map0000100For(*Input) Class(#xjsmstring) Name(#Base) Mandatory('*NONE') Help('Specifies whether path informati
IDEXJSMZIPC  000000000002420000002   000          0000100on in the zip file entries is used when extracting the files to the directory specified by the TO ke
IDEXJSMZIPC  000000000002420000003   000          0000068yword - *NONE, *CURRENT, <path>')00359980120170725                                                  
IDEXJSMZIPC  000000000002430000001   035Define_Map0000100For(*Input) Class(#xjsmstring) Name(#ExtractToPath) Help('Specifies the path to the directory that w
IDEXJSMZIPC  000000000002430000002   000          0000069ill receive the extracted files.')00359980120170725                                                 
IDEXJSMZIPC  000000000002440000001   035Define_Map0000100For(*Output) Class(#xjsmstatus) Name(#Status) Help('Return Status from last JSMX_* built in function
IDEXJSMZIPC  000000000002440000002   000          0000046 executed')00359980120170725                                                                        
IDEXJSMZIPC  000000000002450000001   035Define_Map0000100For(*Output) Class(#xjsmmessage) Name(#Message) Help('Message associated with return status')0035998
IDEXJSMZIPC  000000000002450000002   000          00000280120170725                                                                                          
IDEXJSMZIPC  000000000002460000001   035Define_Map0000100For(*Result) Class(#prim_boln) Name(#Result) Help('Boolean indicating if routine completed successfu
IDEXJSMZIPC  000000000002460000002   000          0000040lly')00359980120161117                                                                              
IDEXJSMZIPC  000000000002470000000   000          0000000                                                                                                    
IDEXJSMZIPC  000000000002480000000   000_ASSIGN   0000016#Result := False                                                                                    
IDEXJSMZIPC  000000000002490000000   000          0000000                                                                                                    
IDEXJSMZIPC  000000000002500000001   035_ASSIGN   0000100#xjsmcmd := 'get entry(*READ) path(' + #Path + ') base(' + #Base + ') to(' + #ExtractToPath + ')'003
IDEXJSMZIPC  000000000002500000002   000          000003259980120170725                                                                                      
IDEXJSMZIPC  000000000002510000001   035Use       0000100Builtin(jsmx_command) With_Args(#xjsmhandle #xjsmcmd) To_Get(#Status #Message)00359980120170725     
IDEXJSMZIPC  000000000002510000002   000          0000013                                                                                                    
IDEXJSMZIPC  000000000002520000000   000          0000000                                                                                                    
IDEXJSMZIPC  000000000002530000000   000If        0000014(#Status = OK)                                                                                      
IDEXJSMZIPC  000000000002540000000   000          0000000                                                                                                    
IDEXJSMZIPC  000000000002550000000   000_ASSIGN   0000015#Result := True                                                                                     
IDEXJSMZIPC  000000000002560000000   000          0000000                                                                                                    
IDEXJSMZIPC  000000000002570000000   000Endif     0000000                                                                                                    
IDEXJSMZIPC  000000000002580000000   000          0000000                                                                                                    
IDEXJSMZIPC  000000000002590000000   000Endroutine0000000                                                                                                    
IDEXJSMZIPC  000000000002600000000   000          0000000                                                                                                    
IDEXJSMZIPC  000000000002610000001   035Mthroutine0000100Name(ZipGetFile) Help('Extract File(s) from the current zip archive')00359980120170123              
IDEXJSMZIPC  000000000002610000002   000          0000004                                                                                                    
IDEXJSMZIPC  000000000002620000001   035Define_Map0000100For(*Input) Class(#xjsmstring) Name(#File) Mandatory('') Help('Specifies the full path of a file in 
IDEXJSMZIPC  000000000002620000002   000          0000077the zip archive that is to be extracted.')00359980120170725                                         
IDEXJSMZIPC  000000000002630000001   035Define_Map0000100For(*Input) Class(#xjsmstring) Name(#Base) Mandatory('*NONE') Help('Specifies whether path informati
IDEXJSMZIPC  000000000002630000002   000          0000100on in the zip file entries is used when extracting the files to the directory specified by the TO ke
IDEXJSMZIPC  000000000002630000003   000          0000068yword - *NONE, *CURRENT, <path>')00359980120170725                                                  
IDEXJSMZIPC  000000000002640000001   035Define_Map0000100For(*Input) Class(#xjsmstring) Name(#Occurrence) Mandatory('*ALL') Help('By default all occurrences 
IDEXJSMZIPC  000000000002640000002   000          0000100of a file are written out. If you only require the first occurrence of the file to be written out us
IDEXJSMZIPC  000000000002640000003   000          0000078e the keyword value *FIRST - *ALL, *FIRST')00359980120170725                                        
IDEXJSMZIPC  000000000002650000001   035Define_Map0000100For(*Input) Class(#xjsmstring) Name(#ExtractToPath) Help('Specifies the path to the directory that w
IDEXJSMZIPC  000000000002650000002   000          0000069ill receive the extracted files.')00359980120170725                                                 
IDEXJSMZIPC  000000000002660000001   035Define_Map0000100For(*Output) Class(#xjsmstatus) Name(#Status) Help('Return Status from last JSMX_* built in function
IDEXJSMZIPC  000000000002660000002   000          0000046 executed')00359980120170725                                                                        
IDEXJSMZIPC  000000000002670000001   035Define_Map0000100For(*Output) Class(#xjsmmessage) Name(#Message) Help('Message associated with return status')0035998
IDEXJSMZIPC  000000000002670000002   000          00000280120170725                                                                                          
IDEXJSMZIPC  000000000002680000001   035Define_Map0000100For(*Result) Class(#prim_boln) Name(#Result) Help('Boolean indicating if routine completed successfu
IDEXJSMZIPC  000000000002680000002   000          0000040lly')00359980120161117                                                                              
IDEXJSMZIPC  000000000002690000000   000          0000000                                                                                                    
IDEXJSMZIPC  000000000002700000000   000_ASSIGN   0000016#Result := False                                                                                    
IDEXJSMZIPC  000000000002710000000   000          0000000                                                                                                    
IDEXJSMZIPC  000000000002720000001   035_ASSIGN   0000100#xjsmcmd := 'get entry(*READ) File(' + #File + ') base(' + #Base + ') occurrence(' + #Occurrence + '
IDEXJSMZIPC  000000000002720000002   000          0000064) to(' + #ExtractToPath + ')'00359980120170725                                                      
IDEXJSMZIPC  000000000002730000001   035Use       0000100Builtin(jsmx_command) With_Args(#xjsmhandle #xjsmcmd) To_Get(#Status #Message)00359980120170725     
IDEXJSMZIPC  000000000002730000002   000          0000013                                                                                                    
IDEXJSMZIPC  000000000002740000000   000          0000000                                                                                                    
IDEXJSMZIPC  000000000002750000000   000If        0000014(#Status = OK)                                                                                      
IDEXJSMZIPC  000000000002760000000   000          0000000                                                                                                    
IDEXJSMZIPC  000000000002770000000   000_ASSIGN   0000015#Result := True                                                                                     
IDEXJSMZIPC  000000000002780000000   000          0000000                                                                                                    
IDEXJSMZIPC  000000000002790000000   000Endif     0000000                                                                                                    
IDEXJSMZIPC  000000000002800000000   000          0000000                                                                                                    
IDEXJSMZIPC  000000000002810000000   000Endroutine0000000                                                                                                    
IDEXJSMZIPC  000000000002820000000   000          0000000                                                                                                    
IDEXJSMZIPC  000000000002830000000   000Mthroutine0000049Name(ZipClose) Help('Closes the current archive')                                                   
IDEXJSMZIPC  000000000002840000001   035Define_Map0000100For(*Output) Class(#xjsmstatus) Name(#Status) Help('Return Status from last JSMX_* built in function
IDEXJSMZIPC  000000000002840000002   000          0000046 executed')00359980120170725                                                                        
IDEXJSMZIPC  000000000002850000001   035Define_Map0000100For(*Output) Class(#xjsmmessage) Name(#Message) Help('Message associated with return status')0035998
IDEXJSMZIPC  000000000002850000002   000          00000280120170725                                                                                          
IDEXJSMZIPC  000000000002860000001   035Define_Map0000100For(*Result) Class(#prim_boln) Name(#Result) Help('Boolean indicating if routine completed successfu
IDEXJSMZIPC  000000000002860000002   000          0000040lly')00359980120161117                                                                              
IDEXJSMZIPC  000000000002870000000   000          0000000                                                                                                    
IDEXJSMZIPC  000000000002880000000   000_ASSIGN   0000016#Result := False                                                                                    
IDEXJSMZIPC  000000000002890000000   000          0000000                                                                                                    
IDEXJSMZIPC  000000000002900000000   000**********0000030close the current archive file                                                                      
IDEXJSMZIPC  000000000002910000001   035Use       0000100Builtin(jsmx_command) With_Args(#xjsmhandle 'close') To_Get(#Status #Message)00359980120170725      
IDEXJSMZIPC  000000000002910000002   000          0000012                                                                                                    
IDEXJSMZIPC  000000000002920000000   000          0000000                                                                                                    
IDEXJSMZIPC  000000000002930000000   000If        0000014(#Status = OK)                                                                                      
IDEXJSMZIPC  000000000002940000000   000          0000000                                                                                                    
IDEXJSMZIPC  000000000002950000000   000_ASSIGN   0000015#Result := True                                                                                     
IDEXJSMZIPC  000000000002960000000   000          0000000                                                                                                    
IDEXJSMZIPC  000000000002970000000   000Endif     0000000                                                                                                    
IDEXJSMZIPC  000000000002980000000   000          0000000                                                                                                    
IDEXJSMZIPC  000000000002990000000   000Endroutine0000000                                                                                                    
IDEXJSMZIPC  000000000003000000000   000          0000000                                                                                                    
IDEXJSMZIPC  000000000003010000000   000Mthroutine0000081Name(JSMCloseandUnload) Help('Unload ZipService and close JSM Server connection')                   
IDEXJSMZIPC  000000000003020000001   035Define_Map0000100For(*Output) Class(#xjsmstatus) Name(#Status) Help('Return Status from last JSMX_* built in function
IDEXJSMZIPC  000000000003020000002   000          0000046 executed')00359980120170725                                                                        
IDEXJSMZIPC  000000000003030000001   035Define_Map0000100For(*Output) Class(#xjsmmessage) Name(#Message) Help('Message associated with return status')0035998
IDEXJSMZIPC  000000000003030000002   000          00000280120170725                                                                                          
IDEXJSMZIPC  000000000003040000001   035Define_Map0000100For(*Result) Class(#prim_boln) Name(#Result) Help('Boolean indicating if routine completed successfu
IDEXJSMZIPC  000000000003040000002   000          0000040lly')00359980120161117                                                                              
IDEXJSMZIPC  000000000003050000000   000          0000000                                                                                                    
IDEXJSMZIPC  000000000003060000000   000_ASSIGN   0000016#Result := False                                                                                    
IDEXJSMZIPC  000000000003070000000   000          0000000                                                                                                    
IDEXJSMZIPC  000000000003080000001   035Use       0000100Builtin(jsmx_command) With_Args(#xjsmhandle 'service_unload') To_Get(#Status #Message)00359980120170
IDEXJSMZIPC  000000000003080000002   000          0000021725                                                                                                 
IDEXJSMZIPC  000000000003090000000   000          0000000                                                                                                    
IDEXJSMZIPC  000000000003100000000   000If        0000015(#Status <> OK)                                                                                     
IDEXJSMZIPC  000000000003110000000   000          0000000                                                                                                    
IDEXJSMZIPC  000000000003120000000   000Return    0000000                                                                                                    
IDEXJSMZIPC  000000000003130000000   000          0000000                                                                                                    
IDEXJSMZIPC  000000000003140000000   000Endif     0000000                                                                                                    
IDEXJSMZIPC  000000000003150000000   000          0000000                                                                                                    
IDEXJSMZIPC  000000000003160000000   000**********0000016Close the thread                                                                                    
IDEXJSMZIPC  000000000003170000001   035Use       0000100Builtin(jsmx_close) With_Args(#xjsmhandle) To_Get(#Status #Message)00359980120170725                
IDEXJSMZIPC  000000000003170000002   000          0000002                                                                                                    
IDEXJSMZIPC  000000000003180000000   000          0000000                                                                                                    
IDEXJSMZIPC  000000000003190000000   000If        0000014(#Status = OK)                                                                                      
IDEXJSMZIPC  000000000003200000000   000          0000000                                                                                                    
IDEXJSMZIPC  000000000003210000000   000_ASSIGN   0000015#Result := True                                                                                     
IDEXJSMZIPC  000000000003220000000   000          0000000                                                                                                    
IDEXJSMZIPC  000000000003230000000   035_ASSIGN   0000055#xjsmhandle := *null00359980120170725                                                               
IDEXJSMZIPC  000000000003240000000   000          0000000                                                                                                    
IDEXJSMZIPC  000000000003250000000   000Endif     0000000                                                                                                    
IDEXJSMZIPC  000000000003260000000   000          0000000                                                                                                    
IDEXJSMZIPC  000000000003270000000   000Endroutine0000000                                                                                                    
IDEXJSMZIPC  000000000003280000000   000          0000000                                                                                                    
IDEXJSMZIPC  000000000003290000000   000End_Com   0000000                                                                                                    
IDEXJSMZIPW  000000000000010000001   035**********0000100If you need to modify this reusable part to accomodate your specific requirements, copy the object i
IDEXJSMZIPW  000000000000010000002   000          0000090nto another reusable part which does not start with x*.00359980120170105                            
IDEXJSMZIPW  000000000000020000000   035          000003500359980120170105                                                                                   
IDEXJSMZIPW  000000000000030000000   000Function  0000016Options(*Direct)                                                                                    
IDEXJSMZIPW  000000000000040000000   035Begin_Com 0000073Role(*EXTENDS #XJSMZipServiceCommands)00359980120161117                                             
IDEXJSMZIPW  000000000000050000000   000          0000000                                                                                                    
IDEXJSMZIPW  000000000000060000001   035Mthroutine0000100Name(WFZipSingleFile) Help('JSM Open & Load, Open, Add, Unload & JSM Close')00359980120161117       
IDEXJSMZIPW  000000000000060000002   000          0000011                                                                                                    
IDEXJSMZIPW  000000000000070000001   035Define_Map0000100For(*Input) Class(#xjsmstring) Name(#ZipFileName) Help('File path of the archive to be created. If n
IDEXJSMZIPW  000000000000070000002   000          0000100o path, or a relative path, is specified the file will be created relative to the JSM instance direc
IDEXJSMZIPW  000000000000070000003   000          0000100tory. The file extension should be .zip to ensure the file can be correctly recognized and processed
IDEXJSMZIPW  000000000000070000004   000          0000060 by other applications.')00359980120170725                                                          
IDEXJSMZIPW  000000000000080000001   035Define_Map0000100For(*Input) Class(#xjsmserver) Name(#Server) Mandatory('') Help('Server (host:port). If no server ar
IDEXJSMZIPW  000000000000080000002   000          0000100gument is supplied, then the JSM server host is obtained by reading the JSMCLTDTA data area.')003599
IDEXJSMZIPW  000000000000080000003   000          000002980120170725                                                                                         
IDEXJSMZIPW  000000000000090000001   035Define_Map0000100For(*Input) Class(#xjsmtrace) Name(#Trace) Mandatory('*NO') Help('Enable tracing from the client pro
IDEXJSMZIPW  000000000000090000002   000          0000061gram - *NO, *YES, *ERROR')00359980120170725                                                         
IDEXJSMZIPW  000000000000100000001   035Define_Map0000100For(*Input) Class(#xjsmstring) Name(#FiletoAdd) Help('Specify the name, and optionally the path, of 
IDEXJSMZIPW  000000000000100000002   000          0000079a file to be added to the current archive.')00359980120170725                                       
IDEXJSMZIPW  000000000000110000001   035Define_Map0000100For(*Output) Class(#xjsmstatus) Name(#Status) Help('Return Status from last JSMX_* built in function
IDEXJSMZIPW  000000000000110000002   000          0000046 executed')00359980120170725                                                                        
IDEXJSMZIPW  000000000000120000001   035Define_Map0000100For(*Output) Class(#xjsmmessage) Name(#Message) Help('Message associated with return status')0035998
IDEXJSMZIPW  000000000000120000002   000          00000280120170725                                                                                          
IDEXJSMZIPW  000000000000130000001   035Define_Map0000100For(*Result) Class(#prim_boln) Name(#Result) Help('Boolean indicating if routine completed successfu
IDEXJSMZIPW  000000000000130000002   000          0000040lly')00359980120161117                                                                              
IDEXJSMZIPW  000000000000140000000   000          0000000                                                                                                    
IDEXJSMZIPW  000000000000150000000   000_ASSIGN   0000016#Result := False                                                                                    
IDEXJSMZIPW  000000000000160000000   000          0000000                                                                                                    
IDEXJSMZIPW  000000000000170000001   035If        0000100(*Not #com_owner.JSMOpenandLoad( #server #Trace #Status #Message ))00359980120170105                
IDEXJSMZIPW  000000000000170000002   000          0000002                                                                                                    
IDEXJSMZIPW  000000000000180000000   000          0000000                                                                                                    
IDEXJSMZIPW  000000000000190000000   000Return    0000000                                                                                                    
IDEXJSMZIPW  000000000000200000000   000          0000000                                                                                                    
IDEXJSMZIPW  000000000000210000000   000Endif     0000000                                                                                                    
IDEXJSMZIPW  000000000000220000000   000          0000000                                                                                                    
IDEXJSMZIPW  000000000000230000000   000If        0000073(*Not #com_owner.ZipOpen( #ZipFileName '*WRITE' '*NO' #Status #Message ))                           
IDEXJSMZIPW  000000000000240000000   000          0000000                                                                                                    
IDEXJSMZIPW  000000000000250000000   000**********0000045always close but do not return status/message                                                       
IDEXJSMZIPW  000000000000260000000   035_PERFORM  0000091#com_owner.JSMCloseandUnload( #xjsmstatus #xjsmmessage )00359980120170725                           
IDEXJSMZIPW  000000000000270000000   000          0000000                                                                                                    
IDEXJSMZIPW  000000000000280000000   000Return    0000000                                                                                                    
IDEXJSMZIPW  000000000000290000000   000          0000000                                                                                                    
IDEXJSMZIPW  000000000000300000000   000Endif     0000000                                                                                                    
IDEXJSMZIPW  000000000000310000000   000          0000000                                                                                                    
IDEXJSMZIPW  000000000000320000000   000If        0000059(*Not #com_owner.ZipAddFile( #FiletoAdd #Status #Message ))                                         
IDEXJSMZIPW  000000000000330000000   000          0000000                                                                                                    
IDEXJSMZIPW  000000000000340000000   000**********0000045always close but do not return status/message                                                       
IDEXJSMZIPW  000000000000350000000   035_PERFORM  0000091#com_owner.JSMCloseandUnload( #xjsmstatus #xjsmmessage )00359980120170725                           
IDEXJSMZIPW  000000000000360000000   000          0000000                                                                                                    
IDEXJSMZIPW  000000000000370000000   000Return    0000000                                                                                                    
IDEXJSMZIPW  000000000000380000000   000          0000000                                                                                                    
IDEXJSMZIPW  000000000000390000000   000Endif     0000000                                                                                                    
IDEXJSMZIPW  000000000000400000000   000          0000000                                                                                                    
IDEXJSMZIPW  000000000000410000000   000If        0000055(*Not #com_owner.JSMCloseandUnload( #Status #Message ))                                             
IDEXJSMZIPW  000000000000420000000   000          0000000                                                                                                    
IDEXJSMZIPW  000000000000430000000   000Return    0000000                                                                                                    
IDEXJSMZIPW  000000000000440000000   000          0000000                                                                                                    
IDEXJSMZIPW  000000000000450000000   000Endif     0000000                                                                                                    
IDEXJSMZIPW  000000000000460000000   000          0000000                                                                                                    
IDEXJSMZIPW  000000000000470000000   000_ASSIGN   0000015#Result := True                                                                                     
IDEXJSMZIPW  000000000000480000000   000          0000000                                                                                                    
IDEXJSMZIPW  000000000000490000000   000Endroutine0000000                                                                                                    
IDEXJSMZIPW  000000000000500000000   000          0000000                                                                                                    
IDEXJSMZIPW  000000000000510000000   000          0000000                                                                                                    
IDEXJSMZIPW  000000000000520000001   035Mthroutine0000100Name(WFZipMultipleFiles) Help('JSM Open & Load, Open, Add, Unload & JSM Close')00359980120161117    
IDEXJSMZIPW  000000000000520000002   000          0000014                                                                                                    
IDEXJSMZIPW  000000000000530000001   035Define_Map0000100For(*Input) Class(#xjsmstring) Name(#ZipFileName) Help('File path of the archive to be created. If n
IDEXJSMZIPW  000000000000530000002   000          0000100o path, or a relative path, is specified the file will be created relative to the JSM instance direc
IDEXJSMZIPW  000000000000530000003   000          0000100tory. The file extension should be .zip to ensure the file can be correctly recognized and processed
IDEXJSMZIPW  000000000000530000004   000          0000060 by other applications.')00359980120170725                                                          
IDEXJSMZIPW  000000000000540000001   035Define_Map0000100For(*Input) Class(#xjsmserver) Name(#Server) Mandatory('') Help('Server (host:port). If no server ar
IDEXJSMZIPW  000000000000540000002   000          0000100gument is supplied, then the JSM server host is obtained by reading the JSMCLTDTA data area.')003599
IDEXJSMZIPW  000000000000540000003   000          000002980120170725                                                                                         
IDEXJSMZIPW  000000000000550000001   035Define_Map0000100For(*Input) Class(#xjsmtrace) Name(#Trace) Mandatory('*NO') Help('Enable tracing from the client pro
IDEXJSMZIPW  000000000000550000002   000          0000061gram - *NO, *YES, *ERROR')00359980120170725                                                         
IDEXJSMZIPW  000000000000560000001   035Define_Map0000100For(*Input) Class(#prim_lcol<#prim_alph>) Name(#Files) Help('Collection of file names #prim_lcol<#pr
IDEXJSMZIPW  000000000000560000002   000          0000100im_alph> to be added to the current archive') Pass(*By_Reference)00359980120161117                  
IDEXJSMZIPW  000000000000570000001   035Define_Map0000100For(*Output) Class(#xjsmstatus) Name(#Status) Help('Return Status from last JSMX_* built in function
IDEXJSMZIPW  000000000000570000002   000          0000046 executed')00359980120170725                                                                        
IDEXJSMZIPW  000000000000580000001   035Define_Map0000100For(*Output) Class(#xjsmmessage) Name(#Message) Help('Message associated with return status')0035998
IDEXJSMZIPW  000000000000580000002   000          00000280120170725                                                                                          
IDEXJSMZIPW  000000000000590000001   035Define_Map0000100For(*Result) Class(#prim_boln) Name(#Result) Help('Boolean indicating if routine completed successfu
IDEXJSMZIPW  000000000000590000002   000          0000040lly')00359980120161117                                                                              
IDEXJSMZIPW  000000000000600000000   000          0000000                                                                                                    
IDEXJSMZIPW  000000000000610000000   000_ASSIGN   0000016#Result := False                                                                                    
IDEXJSMZIPW  000000000000620000000   000          0000000                                                                                                    
IDEXJSMZIPW  000000000000630000001   035If        0000100(*Not #com_owner.JSMOpenandLoad( #server #Trace #Status #Message ))00359980120170105                
IDEXJSMZIPW  000000000000630000002   000          0000002                                                                                                    
IDEXJSMZIPW  000000000000640000000   000          0000000                                                                                                    
IDEXJSMZIPW  000000000000650000000   000Return    0000000                                                                                                    
IDEXJSMZIPW  000000000000660000000   000          0000000                                                                                                    
IDEXJSMZIPW  000000000000670000000   000Endif     0000000                                                                                                    
IDEXJSMZIPW  000000000000680000000   000          0000000                                                                                                    
IDEXJSMZIPW  000000000000690000000   000If        0000073(*Not #com_owner.ZipOpen( #ZipFileName '*WRITE' '*NO' #Status #Message ))                           
IDEXJSMZIPW  000000000000700000000   000          0000000                                                                                                    
IDEXJSMZIPW  000000000000710000000   000**********0000045always close but do not return status/message                                                       
IDEXJSMZIPW  000000000000720000000   035_PERFORM  0000091#com_owner.JSMCloseandUnload( #xjsmstatus #xjsmmessage )00359980120170725                           
IDEXJSMZIPW  000000000000730000000   000          0000000                                                                                                    
IDEXJSMZIPW  000000000000740000000   000Return    0000000                                                                                                    
IDEXJSMZIPW  000000000000750000000   000          0000000                                                                                                    
IDEXJSMZIPW  000000000000760000000   000Endif     0000000                                                                                                    
IDEXJSMZIPW  000000000000770000000   000          0000000                                                                                                    
IDEXJSMZIPW  000000000000780000000   000If        0000056(*Not #com_owner.ZipAddFiles( #Files #Status #Message ))                                            
IDEXJSMZIPW  000000000000790000000   000          0000000                                                                                                    
IDEXJSMZIPW  000000000000800000000   000**********0000045always close but do not return status/message                                                       
IDEXJSMZIPW  000000000000810000000   035_PERFORM  0000091#com_owner.JSMCloseandUnload( #xjsmstatus #xjsmmessage )00359980120170725                           
IDEXJSMZIPW  000000000000820000000   000          0000000                                                                                                    
IDEXJSMZIPW  000000000000830000000   000Return    0000000                                                                                                    
IDEXJSMZIPW  000000000000840000000   000          0000000                                                                                                    
IDEXJSMZIPW  000000000000850000000   000Endif     0000000                                                                                                    
IDEXJSMZIPW  000000000000860000000   000          0000000                                                                                                    
IDEXJSMZIPW  000000000000870000000   000If        0000055(*Not #com_owner.JSMCloseandUnload( #Status #Message ))                                             
IDEXJSMZIPW  000000000000880000000   000          0000000                                                                                                    
IDEXJSMZIPW  000000000000890000000   000Return    0000000                                                                                                    
IDEXJSMZIPW  000000000000900000000   000          0000000                                                                                                    
IDEXJSMZIPW  000000000000910000000   000Endif     0000000                                                                                                    
IDEXJSMZIPW  000000000000920000000   000          0000000                                                                                                    
IDEXJSMZIPW  000000000000930000000   000_ASSIGN   0000015#Result := True                                                                                     
IDEXJSMZIPW  000000000000940000000   000          0000000                                                                                                    
IDEXJSMZIPW  000000000000950000000   000Endroutine0000000                                                                                                    
IDEXJSMZIPW  000000000000960000000   000          0000000                                                                                                    
IDEXJSMZIPW  000000000000970000001   035Mthroutine0000100Name(WFZipSinglePath) Help('JSM Open & Load, Open, Add, Unload & JSM Close')00359980120161117       
IDEXJSMZIPW  000000000000970000002   000          0000011                                                                                                    
IDEXJSMZIPW  000000000000980000001   035Define_Map0000100For(*Input) Class(#xjsmstring) Name(#ZipFileName) Help('File path of the archive to be created. If n
IDEXJSMZIPW  000000000000980000002   000          0000100o path, or a relative path, is specified the file will be created relative to the JSM instance direc
IDEXJSMZIPW  000000000000980000003   000          0000100tory. The file extension should be .zip to ensure the file can be correctly recognized and processed
IDEXJSMZIPW  000000000000980000004   000          0000060 by other applications.')00359980120170725                                                          
IDEXJSMZIPW  000000000000990000001   035Define_Map0000100For(*Input) Class(#xjsmserver) Name(#Server) Mandatory('') Help('Server (host:port). If no server ar
IDEXJSMZIPW  000000000000990000002   000          0000100gument is supplied, then the JSM server host is obtained by reading the JSMCLTDTA data area.')003599
IDEXJSMZIPW  000000000000990000003   000          000002980120170725                                                                                         
IDEXJSMZIPW  000000000001000000001   035Define_Map0000100For(*Input) Class(#xjsmtrace) Name(#Trace) Mandatory('*NO') Help('Enable tracing from the client pro
IDEXJSMZIPW  000000000001000000002   000          0000071gram - *NO (default), *YES, *ERROR')00359980120170725                                               
IDEXJSMZIPW  000000000001010000001   035Define_Map0000100For(*Input) Class(#xjsmstring) Name(#PathtoAdd) Help('File path specifies the path of a single direc
IDEXJSMZIPW  000000000001010000002   000          0000077tory to be added to the current archive.')00359980120170725                                         
IDEXJSMZIPW  000000000001020000001   035Define_Map0000100For(*Input) Class(#xjsmstring) Name(#Base) Mandatory('*NONE') Help('Nominate a path to be used as th
IDEXJSMZIPW  000000000001020000002   000          0000100e relative path for all files in the zip archive - *NONE (default), *CURRENT, *PARENT, <path>')00359
IDEXJSMZIPW  000000000001020000003   000          0000030980120170725                                                                                        
IDEXJSMZIPW  000000000001030000001   035Define_Map0000100For(*Input) Class(#xjsmstring) Name(#Tree) Mandatory('*YES') Help('Specifies whether the add operati
IDEXJSMZIPW  000000000001030000002   000          0000100ons should recursively traverse sub-directories of the directory(s) specified - *YES (default), *NO'
IDEXJSMZIPW  000000000001030000003   000          0000036)00359980120170725                                                                                  
IDEXJSMZIPW  000000000001040000001   035Define_Map0000100For(*Output) Class(#xjsmstatus) Name(#Status) Help('Return Status from last JSMX_* built in function
IDEXJSMZIPW  000000000001040000002   000          0000046 executed')00359980120170725                                                                        
IDEXJSMZIPW  000000000001050000001   035Define_Map0000100For(*Output) Class(#xjsmmessage) Name(#Message) Help('Message associated with return status')0035998
IDEXJSMZIPW  000000000001050000002   000          00000280120170725                                                                                          
IDEXJSMZIPW  000000000001060000001   035Define_Map0000100For(*Result) Class(#prim_boln) Name(#Result) Help('Boolean indicating if routine completed successfu
IDEXJSMZIPW  000000000001060000002   000          0000040lly')00359980120161117                                                                              
IDEXJSMZIPW  000000000001070000000   000          0000000                                                                                                    
IDEXJSMZIPW  000000000001080000000   000_ASSIGN   0000016#Result := False                                                                                    
IDEXJSMZIPW  000000000001090000000   000          0000000                                                                                                    
IDEXJSMZIPW  000000000001100000001   035If        0000100(*Not #com_owner.JSMOpenandLoad( #server #Trace #Status #Message ))00359980120170105                
IDEXJSMZIPW  000000000001100000002   000          0000002                                                                                                    
IDEXJSMZIPW  000000000001110000000   000          0000000                                                                                                    
IDEXJSMZIPW  000000000001120000000   000Return    0000000                                                                                                    
IDEXJSMZIPW  000000000001130000000   000          0000000                                                                                                    
IDEXJSMZIPW  000000000001140000000   000Endif     0000000                                                                                                    
IDEXJSMZIPW  000000000001150000000   000          0000000                                                                                                    
IDEXJSMZIPW  000000000001160000000   000If        0000073(*Not #com_owner.ZipOpen( #ZipFileName '*WRITE' '*NO' #Status #Message ))                           
IDEXJSMZIPW  000000000001170000000   000          0000000                                                                                                    
IDEXJSMZIPW  000000000001180000000   000**********0000045always close but do not return status/message                                                       
IDEXJSMZIPW  000000000001190000000   035_PERFORM  0000091#com_owner.JSMCloseandUnload( #xjsmstatus #xjsmmessage )00359980120170725                           
IDEXJSMZIPW  000000000001200000000   000          0000000                                                                                                    
IDEXJSMZIPW  000000000001210000000   000Return    0000000                                                                                                    
IDEXJSMZIPW  000000000001220000000   000          0000000                                                                                                    
IDEXJSMZIPW  000000000001230000000   000Endif     0000000                                                                                                    
IDEXJSMZIPW  000000000001240000000   000          0000000                                                                                                    
IDEXJSMZIPW  000000000001250000000   000If        0000071(*Not #com_owner.ZipAddPath( #PathtoAdd #Base #Tree #Status #Message ))                             
IDEXJSMZIPW  000000000001260000000   000          0000000                                                                                                    
IDEXJSMZIPW  000000000001270000000   000**********0000045always close but do not return status/message                                                       
IDEXJSMZIPW  000000000001280000000   035_PERFORM  0000091#com_owner.JSMCloseandUnload( #xjsmstatus #xjsmmessage )00359980120170725                           
IDEXJSMZIPW  000000000001290000000   000          0000000                                                                                                    
IDEXJSMZIPW  000000000001300000000   000Return    0000000                                                                                                    
IDEXJSMZIPW  000000000001310000000   000          0000000                                                                                                    
IDEXJSMZIPW  000000000001320000000   000Endif     0000000                                                                                                    
IDEXJSMZIPW  000000000001330000000   000          0000000                                                                                                    
IDEXJSMZIPW  000000000001340000000   000If        0000055(*Not #com_owner.JSMCloseandUnload( #Status #Message ))                                             
IDEXJSMZIPW  000000000001350000000   000          0000000                                                                                                    
IDEXJSMZIPW  000000000001360000000   000Return    0000000                                                                                                    
IDEXJSMZIPW  000000000001370000000   000          0000000                                                                                                    
IDEXJSMZIPW  000000000001380000000   000Endif     0000000                                                                                                    
IDEXJSMZIPW  000000000001390000000   000          0000000                                                                                                    
IDEXJSMZIPW  000000000001400000000   000_ASSIGN   0000015#Result := True                                                                                     
IDEXJSMZIPW  000000000001410000000   000          0000000                                                                                                    
IDEXJSMZIPW  000000000001420000000   000Endroutine0000000                                                                                                    
IDEXJSMZIPW  000000000001430000000   000          0000000                                                                                                    
IDEXJSMZIPW  000000000001440000001   035Mthroutine0000100Name(WFZipMultiplePaths) Help('JSM Open & Load, Open, Add, Unload & JSM Close')00359980120161117    
IDEXJSMZIPW  000000000001440000002   000          0000014                                                                                                    
IDEXJSMZIPW  000000000001450000001   035Define_Map0000100For(*Input) Class(#xjsmstring) Name(#ZipFileName) Help('File path of the archive to be created. If n
IDEXJSMZIPW  000000000001450000002   000          0000100o path, or a relative path, is specified the file will be created relative to the JSM instance direc
IDEXJSMZIPW  000000000001450000003   000          0000100tory. The file extension should be .zip to ensure the file can be correctly recognized and processed
IDEXJSMZIPW  000000000001450000004   000          0000060 by other applications.')00359980120170725                                                          
IDEXJSMZIPW  000000000001460000001   035Define_Map0000100For(*Input) Class(#xjsmserver) Name(#Server) Mandatory('') Help('Server (host:port). If no server ar
IDEXJSMZIPW  000000000001460000002   000          0000100gument is supplied, then the JSM server host is obtained by reading the JSMCLTDTA data area.')003599
IDEXJSMZIPW  000000000001460000003   000          000002980120170725                                                                                         
IDEXJSMZIPW  000000000001470000001   035Define_Map0000100For(*Input) Class(#xjsmtrace) Name(#Trace) Mandatory('*NO') Help('Enable tracing from the client pro
