DEXDFDATETI_1                                00000000000002STD_TIMX               Y      Visual                                                          
DEXDFDATETI_1                                00000010000002STD_TIME               Y      Visual                                                          
DEXDFDATETI_1                                00000020000002STD_DATEX              Y      Visual                                                          
DEXDFDATETI_1                                00000030000002STD_DTIMX              Y      Visual                                                          
DEXDFDATETI_1                                00000040000003TRCHNDL                Y                                                                      
DEXDFDATETI_1                                00000050000007DATETI_1            Y         AddMessage                                                      
DEXDFDATETI_1                                00000060000017*BLANK                Y                                                                       
DEXDFDATETI_1                                00000070000017*BLANKS               Y                                                                       
DEXDFDATETI_1                                00000080000017*COMPONENT_DESC       Y                                                                       
DEXDFDATETI_1                                00000090000017*TEMP_DIR             Y                                                                       
DEXDFDATETI_1                                00000100000017*TIME                 Y                                                                       
DEXDFDATETI_1                                00000110000017*ZERO                 Y                                                                       
DEXDFDATETI_1                                00000120000014END                   Y     YZ000002600                                                       
DEXDFDATETI_1                                00000130000014ENDDATE               Y     YE000001000                                                       
DEXDFDATETI_1                                00000140000014ENDTIME               Y     YM000000800                                                       
DEXDFDATETI_1                                00000150000014FILHANDLE             Y     YP000000300                                                       
DEXDFDATETI_1                                00000160000014IO$MDE                Y      A000000300                                                       
DEXDFDATETI_1                                00000170000014IO$STS               YY      A000000200                                                       
DEXDFDATETI_1                                00000180000014START                 Y     YZ000002600                                                       
DEXDFDATETI_1                                00000190000014STARTDATE             Y     YE000001000                                                       
DEXDFDATETI_1                                00000200000014STARTTIME             Y     YM000000800                                                       
DEXDFDATETI_1                                00000210000014STD_DATEX             Y      E000001000                                                       
DEXDFDATETI_1                                00000220000014STD_DTIMX             Y      Z000002600                                                       
DEXDFDATETI_1                                00000230000014STD_TIME              Y      S000000600                                                       
DEXDFDATETI_1                                00000240000014STD_TIMX              Y      M000000800                                                       
DEXDFDATETI_1                                00000250000024F@SYSVAR            *LIBL                                                                     
DEXDFDATETI_1                                00000260000024M@SYSVAR            *LIBL                                                                     
DEXDFDATETI_1                                00000270000019STM_FILE_CLOSE                                                                                
DEXDFDATETI_1                                00000280000019STM_FILE_OPEN                                                                                 
DEXDFDATETI_1                                00000290000019STM_FILE_WRITE                                                                                
DEXDFTRCHNDL                                 00000000000001IO$STS                 Y                                                                      
DEXDFTRCHNDL                                 00000010000007TRCHNDL             Y         CloseTraceFile                                                  
DEXDFTRCHNDL                                 00000020000007TRCHNDL             Y         OpenTraceFile                                                   
DEXDFTRCHNDL                                 00000030000007TRCHNDL             Y         WriteToFile                                                     
DEXDFTRCHNDL                                 00000040000007TRCHNDL             Y         FileExists                                                      
DEXDFTRCHNDL                                 00000050000017*BLANK                Y                                                                       
DEXDFTRCHNDL                                 00000060000017*BLANKS               Y                                                                       
DEXDFTRCHNDL                                 00000070000017*SYS_DIR              Y                                                                       
DEXDFTRCHNDL                                 00000080000017*ZERO                 Y                                                                       
DEXDFTRCHNDL                                 00000090000014FILHANDLE             Y     YP000000300                                                       
DEXDFTRCHNDL                                 00000100000014IO$MDE                Y      A000000300                                                       
DEXDFTRCHNDL                                 00000110000014IO$STS              YYY      A000000200                                                       
DEXDFTRCHNDL                                 00000120000014TAB                   Y     YA000000100                                                       
DEXDFTRCHNDL                                 00000130000024M@SYSVAR            *LIBL                                                                     
DEXDFTRCHNDL                                 00000140000020OV_FILE_SERVICE                                                                               
DEXDFTRCHNDL                                 00000150000019STM_FILE_CLOSE                                                                                
DEXDFTRCHNDL                                 00000160000019STM_FILE_OPEN                                                                                 
DEXDFTRCHNDL                                 00000170000019STM_FILE_WRITE                                                                                
