DEXDATETI_1  000000000000010000000   000Function  0000016Options(*Direct)                                                                                    
DEXDATETI_1  000000000000020000001   035Begin_Com 0000100Role(*EXTENDS #PRIM_FORM) Clientwidth(837) Clientheight(261) Componentversion(2) Layoutmanager(#Layo
DEXDATETI_1  000000000000020000002   000          0000039ut1)00359980120170313                                                                               
DEXDATETI_1  000000000000030000000   035          000003500359980120170313                                                                                   
DEXDATETI_1  000000000000040000000   035Define_Com0000067Class(#PRIM_TBLO) Name(#Layout1)00359980120170313                                                   
DEXDATETI_1  000000000000050000001   035Define_Com0000100Class(#PRIM_TBLO.Column) Name(#Column1) Displayposition(1) Parent(#Layout1)00359980120170313        
DEXDATETI_1  000000000000050000002   000          0000010                                                                                                    
DEXDATETI_1  000000000000060000001   035Define_Com0000100Class(#PRIM_TBLO.Column) Name(#Column2) Displayposition(2) Parent(#Layout1)00359980120170313        
DEXDATETI_1  000000000000060000002   000          0000010                                                                                                    
DEXDATETI_1  000000000000070000001   035Define_Com0000100Class(#PRIM_TBLO.Row) Name(#Row1) Displayposition(1) Parent(#Layout1)00359980120170313              
DEXDATETI_1  000000000000070000002   000          0000004                                                                                                    
DEXDATETI_1  000000000000080000001   035Define_Com0000100Class(#PRIM_TBLO.Row) Name(#Row2) Displayposition(2) Parent(#Layout1) Height(50) Units(Pixels)003599
DEXDATETI_1  000000000000080000002   000          000002980120170313                                                                                         
DEXDATETI_1  000000000000090000001   035Define_Com0000100Class(#PRIM_TBLO.Item) Name(#Button1Item1) Manage(#Button1) Parent(#Layout1) Row(#Row2) Sizing(None)
DEXDATETI_1  000000000000090000002   000          0000085 Column(#Column1) Flow(Right) Alignment(TopCenter)00359980120170313                                 
DEXDATETI_1  000000000000100000001   035Define_Com0000100Class(#PRIM_TBLO.Item) Name(#Button2Item1) Manage(#Button2) Parent(#Layout1) Row(#Row2) Sizing(None)
DEXDATETI_1  000000000000100000002   000          0000085 Column(#Column2) Flow(Right) Alignment(TopCenter)00359980120170313                                 
DEXDATETI_1  000000000000110000001   035Define_Com0000100Class(#PRIM_TBLO.Item) Name(#EndItem1) Column(#Column2) Manage(#End) Parent(#Layout1) Sizing(None) R
DEXDATETI_1  000000000000110000002   000          0000090ow(#Row1) Flow(Down) Alignment(TopCenter) Margintop(10)00359980120170313                            
DEXDATETI_1  000000000000120000001   035Define_Com0000100Class(#PRIM_TBLO.Item) Name(#LayoutItem1) Column(#Column1) Flow(Down) Manage(#Start) Parent(#Layout1
DEXDATETI_1  000000000000120000002   000          0000095) Row(#Row1) Sizing(None) Alignment(TopCenter) Margintop(20)00359980120170313                       
DEXDATETI_1  000000000000130000001   035Define_Com0000100Class(#PRIM_TBLO.Item) Name(#STD_DATEXItem1) Manage(#StartDate) Parent(#Layout1) Row(#Row1) Sizing(N
DEXDATETI_1  000000000000130000002   000          0000100one) Column(#Column1) Flow(Down) Margintop(10) Alignment(TopCenter)00359980120170313                
DEXDATETI_1  000000000000130000003   000          0000002                                                                                                    
DEXDATETI_1  000000000000140000001   035Define_Com0000100Class(#PRIM_TBLO.Item) Name(#STD_TIMXItem1) Column(#Column1) Manage(#Start) Parent(#Layout1) Sizing(
DEXDATETI_1  000000000000140000002   000          0000097None) Row(#Row1) Flow(Down) Margintop(10) Alignment(TopCenter)00359980120170313                     
DEXDATETI_1  000000000000150000001   035Define_Com0000100Class(#PRIM_TBLO.Item) Name(#LayoutItem2) Column(#Column2) Flow(Down) Manage(#EndTime) Parent(#Layou
DEXDATETI_1  000000000000150000002   000          0000097t1) Row(#Row1) Sizing(None) Alignment(TopCenter) Margintop(10)00359980120170313                     
DEXDATETI_1  000000000000160000001   035Define_Com0000100Class(#PRIM_TBLO.Item) Name(#LayoutItem3) Column(#Column2) Flow(Down) Manage(#Start) Parent(#Layout1
DEXDATETI_1  000000000000160000002   000          0000095) Row(#Row1) Sizing(None) Alignment(TopCenter) Margintop(10)00359980120170313                       
DEXDATETI_1  000000000000170000001   035Define_Com0000100Class(#PRIM_TBLO.Item) Name(#LayoutItem4) Alignment(TopCenter) Column(#Column2) Manage(#EndDate) Par
DEXDATETI_1  000000000000170000002   000          0000097ent(#Layout1) Row(#Row1) Sizing(None) Flow(Down) Margintop(10)00359980120170313                     
DEXDATETI_1  000000000000180000001   035Define_Com0000100Class(#PRIM_TBLO.Item) Name(#STD_TIMXItem2) Column(#Column1) Manage(#StartTime2) Parent(#Layout1) Si
DEXDATETI_1  000000000000180000002   000          0000100zing(None) Row(#Row1) Alignment(TopCenter) Flow(Down) Margintop(10)00359980120170313                
DEXDATETI_1  000000000000180000003   000          0000002                                                                                                    
DEXDATETI_1  000000000000190000001   035Define_Com0000100Class(#PRIM_TBLO.Item) Name(#LayoutItem5) Column(#Column1) Flow(Down) Manage(#StartTime) Parent(#Lay
DEXDATETI_1  000000000000190000002   000          0000099out1) Row(#Row1) Sizing(None) Alignment(TopCenter) Margintop(10)00359980120170313                   
DEXDATETI_1  000000000000200000001   035Define_Com0000100Class(#PRIM_TBLO.Item) Name(#LayoutItem6) Alignment(TopCenter) Column(#Column1) Parent(#Layout1) Row
DEXDATETI_1  000000000000200000002   000          0000080(#Row1) Sizing(None) Flow(Down) Margintop(10)00359980120170313                                      
DEXDATETI_1  000000000000210000000   035          000003500359980120170313                                                                                   
DEXDATETI_1  000000000000220000001   035Define_Com0000100Class(#PRIM_PHBN) Name(#Button1) Caption('Start') Displayposition(1) Left(169) Parent(#COM_OWNER) Ta
DEXDATETI_1  000000000000220000002   000          0000056bposition(1) Top(211)00359980120170313                                                              
DEXDATETI_1  000000000000230000001   035Define_Com0000100Class(#PRIM_PHBN) Name(#Button2) Caption('Stop') Displayposition(2) Left(588) Parent(#COM_OWNER) Tab
DEXDATETI_1  000000000000230000002   000          0000055position(2) Top(211)00359980120170313                                                               
DEXDATETI_1  000000000000240000001   035Define_Com0000100Class(#STD_DTIMX.Visual) Name(#Start) Componentversion(1) Displayposition(3) Left(59) Parent(#COM_OW
DEXDATETI_1  000000000000240000002   000          0000100NER) Tabposition(3) Width(300) Marginleft(120) Caption('Start Datetime') Labeltype(Caption) Customda
DEXDATETI_1  000000000000240000003   000          0000100teformat('YYMMDD') Customtimeformat('hhmmss') Height(21) Dateformat(Custom) Timeformat(Custom) Top(2
DEXDATETI_1  000000000000240000004   000          00000370)00359980120170313                                                                                 
DEXDATETI_1  000000000000250000001   035Define_Com0000100Class(#STD_DTIMX.Visual) Name(#End) Componentversion(1) Displayposition(4) Height(21) Left(478) Pare
DEXDATETI_1  000000000000250000002   000          0000100nt(#COM_OWNER) Tabposition(4) Width(300) Marginleft(120) Caption('End') Labeltype(Caption) Customdat
DEXDATETI_1  000000000000250000003   000          0000100eformat('YYMMDD') Customtimeformat('hhmmss') Dateformat(Custom) Timeformat(Custom) Top(10)0035998012
DEXDATETI_1  000000000000250000004   000          00000250170313                                                                                             
DEXDATETI_1  000000000000260000000   035          000003500359980120170313                                                                                   
DEXDATETI_1  000000000000270000000   035Define_Com0000075Class(#TraceHandler) Name(#TraceHandler)00359980120170313                                           
DEXDATETI_1  000000000000280000001   035Define_Com0000100Class(#STD_DATEX.Visual) Name(#StartDate) Componentversion(1) Displayposition(5) Height(21) Left(59)
DEXDATETI_1  000000000000280000002   000          0000100 Parent(#COM_OWNER) Showtime(False) Tabposition(5) Top(51) Width(300) Marginleft(120) Caption('Start
DEXDATETI_1  000000000000280000003   000          0000100 Date') Labeltype(Caption) Customdateformat('YYYMMDD') Dateformat(Custom)00359980120170313          
DEXDATETI_1  000000000000280000004   000          0000008                                                                                                    
DEXDATETI_1  000000000000290000001   035Define_Com0000100Class(#STD_TIMX.Visual) Name(#StartTime) Componentversion(1) Displayposition(6) Height(21) Left(59) 
DEXDATETI_1  000000000000290000002   000          0000100Parent(#COM_OWNER) Showdate(False) Tabposition(6) Top(82) Width(300) Marginleft(120) Caption('Start 
DEXDATETI_1  000000000000290000003   000          0000100Time') Labeltype(Caption) Customtimeformat('HHmmss') Dateformat(Custom)00359980120170313            
DEXDATETI_1  000000000000290000004   000          0000006                                                                                                    
DEXDATETI_1  000000000000300000001   035Define_Com0000100Class(#STD_DATEX.Visual) Name(#EndDate) Componentversion(1) Displayposition(7) Height(21) Left(478) 
DEXDATETI_1  000000000000300000002   000          0000100Parent(#COM_OWNER) Showtime(False) Tabposition(7) Top(41) Width(300) Marginleft(120) Labeltype(Capti
DEXDATETI_1  000000000000300000003   000          0000100on) Caption('End Date') Customdateformat('YYYMMDD') Dateformat(Custom)00359980120170313             
DEXDATETI_1  000000000000300000004   000          0000005                                                                                                    
DEXDATETI_1  000000000000310000001   035Define_Com0000100Class(#STD_TIMX.Visual) Name(#EndTime) Componentversion(1) Displayposition(8) Height(21) Left(478) P
DEXDATETI_1  000000000000310000002   000          0000100arent(#COM_OWNER) Showdate(False) Tabposition(8) Top(72) Width(300) Marginleft(120) Labeltype(Captio
DEXDATETI_1  000000000000310000003   000          0000100n) Caption('End Time') Customtimeformat('HHmmss') Dateformat(Custom)00359980120170313               
DEXDATETI_1  000000000000310000004   000          0000003                                                                                                    
DEXDATETI_1  000000000000320000001   035Define_Com0000100Class(#STD_TIMX.Visual) Name(#StartTime2) Componentversion(1) Displayposition(9) Height(21) Left(59)
DEXDATETI_1  000000000000320000002   000          0000100 Parent(#COM_OWNER) Showdate(False) Tabposition(9) Width(300) Top(113) Marginleft(120) Caption('Star
DEXDATETI_1  000000000000320000003   000          0000064t Time 2') Labeltype(Caption)00359980120170313                                                      
DEXDATETI_1  000000000000330000001   035Define_Com0000100Class(#STD_time.Visual) Name(#StartTime3) Componentversion(1) Displayposition(10) Height(21) Left(59
DEXDATETI_1  000000000000330000002   000          0000100) Parent(#COM_OWNER) Tabposition(10) Width(300) Top(144) Caption('Start Time 3') Labeltype(Caption) 
DEXDATETI_1  000000000000330000003   000          0000069Marginleft(120) Usepicklist(False)00359980120170313                                                 
DEXDATETI_1  000000000000340000000   035          000003500359980120170313                                                                                   
DEXDATETI_1  000000000000350000000   035Define    0000085Field(#FilHandle) Type(*Dec) Length(3) Decimals(0)00359980120170313                                 
DEXDATETI_1  000000000000360000000   035Define    0000078Field(#MessageReturn) Type(*Char) Length(2)00359980120170313                                        
DEXDATETI_1  000000000000370000000   035          000003500359980120170313                                                                                   
DEXDATETI_1  000000000000380000000   035Evtroutine0000070Handling(#com_owner.CreateInstance)00359980120170313                                                
DEXDATETI_1  000000000000390000000   000          0000000                                                                                                    
DEXDATETI_1  000000000000400000000   000Set       0000040Com(#com_owner) Caption(*component_desc)                                                            
DEXDATETI_1  000000000000410000000   035          000003500359980120170313                                                                                   
DEXDATETI_1  000000000000420000001   035Use       0000100Builtin(Stm_File_Open) With_Args((*temp_dir + 'trace.txt') Append N N) To_Get(#FilHandle #MessageRet
DEXDATETI_1  000000000000420000002   000          0000039urn)00359980120170313                                                                               
DEXDATETI_1  000000000000430000000   035          000003500359980120170313                                                                                   
DEXDATETI_1  000000000000440000000   035Endroutine000003500359980120170313                                                                                   
DEXDATETI_1  000000000000450000000   000          0000000                                                                                                    
DEXDATETI_1  000000000000460000000   035Evtroutine0000059Handling(#Button1.Click)00359980120170313                                                           
DEXDATETI_1  000000000000470000000   035          000003500359980120170313                                                                                   
DEXDATETI_1  000000000000480000000   035_ASSIGN   0000055#start := #start.now00359980120170313                                                               
DEXDATETI_1  000000000000490000000   035_ASSIGN   0000064#startdate := #start.now.date00359980120170313                                                      
DEXDATETI_1  000000000000500000000   035_ASSIGN   0000064#starttime := #start.now.time00359980120170313                                                      
DEXDATETI_1  000000000000510000000   035_ASSIGN   0000055#starttime2 := *time00359980120170313                                                               
DEXDATETI_1  000000000000520000000   035_ASSIGN   0000055#starttime3 := *time00359980120170313                                                               
DEXDATETI_1  000000000000530000000   035          000003500359980120170313                                                                                   
DEXDATETI_1  000000000000540000001   035_PERFORM  0000100#sys_appln.TraceMessageText( ("Start &1").Substitute( #start.Asstring ) )00359980120170313          
DEXDATETI_1  000000000000540000002   000          0000008                                                                                                    
DEXDATETI_1  000000000000550000001   035_PERFORM  0000100#com_owner.AddMessage( ("Start &1").Substitute( #start.Asstring ) )00359980120170313                
DEXDATETI_1  000000000000550000002   000          0000002                                                                                                    
DEXDATETI_1  000000000000560000000   035          000003500359980120170313                                                                                   
DEXDATETI_1  000000000000570000000   035Endroutine000003500359980120170313                                                                                   
DEXDATETI_1  000000000000580000000   035          000003500359980120170313                                                                                   
DEXDATETI_1  000000000000590000000   035Evtroutine0000059Handling(#Button2.Click)00359980120170313                                                           
DEXDATETI_1  000000000000600000000   035          000003500359980120170313                                                                                   
DEXDATETI_1  000000000000610000000   035_ASSIGN   0000051#end := #end.now00359980120170313                                                                   
DEXDATETI_1  000000000000620000000   035_ASSIGN   0000060#enddate := #end.now.date00359980120170313                                                          
DEXDATETI_1  000000000000630000000   035_ASSIGN   0000060#endtime := #end.now.time00359980120170313                                                          
DEXDATETI_1  000000000000640000000   035          000003500359980120170313                                                                                   
DEXDATETI_1  000000000000650000001   035_PERFORM  0000100#sys_appln.TraceMessageText( ("End &1").Substitute( #end.Asstring ) )00359980120170313              
DEXDATETI_1  000000000000650000002   000          0000004                                                                                                    
DEXDATETI_1  000000000000660000000   035_PERFORM  0000098#com_owner.AddMessage( ("End &1").Substitute( #end.Asstring ) )00359980120170313                    
DEXDATETI_1  000000000000670000000   035          000003500359980120170313                                                                                   
DEXDATETI_1  000000000000680000000   035Endroutine000003500359980120170313                                                                                   
DEXDATETI_1  000000000000690000000   035          000003500359980120170313                                                                                   
DEXDATETI_1  000000000000700000000   035Mthroutine0000051Name(AddMessage)00359980120170313                                                                   
DEXDATETI_1  000000000000710000000   035Define_Map0000076For(*Input) Class(#prim_alph) Name(#Text)00359980120170313                                          
DEXDATETI_1  000000000000720000000   035          000003500359980120170313                                                                                   
DEXDATETI_1  000000000000730000001   035**********0000100Note on IBM i with HM processing will evaluate to /LANSA_<system>/x_lansa/x_hmrqst/<pc name>/install
DEXDATETI_1  000000000000730000002   000          0000044trace.txt00359980120170313                                                                          
DEXDATETI_1  000000000000740000001   035Use       0000100Builtin(Stm_File_Write) With_Args(#FilHandle #Text) To_Get(#MessageReturn)00359980120170313         
DEXDATETI_1  000000000000740000002   000          0000009                                                                                                    
DEXDATETI_1  000000000000750000000   035          000003500359980120170313                                                                                   
DEXDATETI_1  000000000000760000000   035Endroutine000003500359980120170313                                                                                   
DEXDATETI_1  000000000000770000000   035          000003500359980120170313                                                                                   
DEXDATETI_1  000000000000780000001   035Evtroutine0000100Handling(#COM_OWNER.Closing) Options(*NOCLEARMESSAGES *NOCLEARERRORS)00359980120170313              
DEXDATETI_1  000000000000780000002   000          0000004                                                                                                    
DEXDATETI_1  000000000000790000000   035          000003500359980120170313                                                                                   
DEXDATETI_1  000000000000800000001   035Use       0000100Builtin(Stm_File_Close) With_Args(#FilHandle) To_Get(#MessageReturn)00359980120170313               
DEXDATETI_1  000000000000800000002   000          0000003                                                                                                    
DEXDATETI_1  000000000000810000000   035          000003500359980120170313                                                                                   
DEXDATETI_1  000000000000820000000   035Endroutine000003500359980120170313                                                                                   
DEXDATETI_1  000000000000830000000   035          000003500359980120170313                                                                                   
DEXDATETI_1  000000000000840000000   000End_Com   0000000                                                                                                    
DEXTRCHNDL   000000000000010000000   035Function  0000051Options(*Direct)00359980120170313                                                                   
DEXTRCHNDL   000000000000020000001   035Begin_Com 0000100Role(*EXTENDS #PRIM_PANL *implements #prim_app.ITraceHandler) Displayposition(1) Height(270) Left(0)
DEXTRCHNDL   000000000000020000002   000          0000068 Tabposition(1) Top(0) Width(500)00359980120170313                                                  
DEXTRCHNDL   000000000000030000000   035          000003500359980120170313                                                                                   
DEXTRCHNDL   000000000000040000000   035**********0000096Include a Define_Com for this reusable part in your main form00359980120170313                      
DEXTRCHNDL   000000000000050000000   035**********0000077It will install itself as the TraceHandler00359980120170313                                         
DEXTRCHNDL   000000000000060000001   035**********0000100You can then embed #sys_appln.TraceMessageData( xxx ) whereever you want to send trace data to the o
DEXTRCHNDL   000000000000060000002   000          0000046utput file.00359980120170313                                                                        
DEXTRCHNDL   000000000000070000001   035**********0000100This tracehandler creates \x_lansa\x_usertrace.nnn where nnn is the next filename in sequence0035998
DEXTRCHNDL   000000000000070000002   000          00000280120170313                                                                                          
DEXTRCHNDL   000000000000080000000   035          000003500359980120170313                                                                                   
DEXTRCHNDL   000000000000090000000   035Define    0000085Field(#FilHandle) Type(*Dec) Length(3) Decimals(0)00359980120170313                                 
DEXTRCHNDL   000000000000100000000   035          000003500359980120170313                                                                                   
DEXTRCHNDL   000000000000110000000   035Define    0000068Field(#Tab) Type(*Char) Length(1)00359980120170313                                                  
DEXTRCHNDL   000000000000120000000   035          000003500359980120170313                                                                                   
DEXTRCHNDL   000000000000130000000   035Evtroutine0000070Handling(#Com_Owner.CreateInstance)00359980120170313                                                
DEXTRCHNDL   000000000000140000000   035          000003500359980120170313                                                                                   
DEXTRCHNDL   000000000000150000000   035_ASSIGN   0000054#Tab := (09).asChar00359980120170313                                                                
DEXTRCHNDL   000000000000160000000   035          000003500359980120170313                                                                                   
DEXTRCHNDL   000000000000170000001   035_ASSIGN   0000100#Sys_appln.TraceHandler <= #Com_owner /* Set this to be the trace handler for the application */0035
DEXTRCHNDL   000000000000170000002   000          00000319980120170313                                                                                       
DEXTRCHNDL   000000000000180000000   035          000003500359980120170313                                                                                   
DEXTRCHNDL   000000000000190000000   035Endroutine000003500359980120170313                                                                                   
DEXTRCHNDL   000000000000200000000   035          000003500359980120170313                                                                                   
DEXTRCHNDL   000000000000210000000   035Mthroutine0000098Name(Initialize) Help('Tracing is starting') Options(*Redefine)00359980120170313                    
DEXTRCHNDL   000000000000220000000   035          000003500359980120170313                                                                                   
DEXTRCHNDL   000000000000230000000   035_INVOKE   0000059#Com_owner.OpenTraceFile00359980120170313                                                           
DEXTRCHNDL   000000000000240000000   035          000003500359980120170313                                                                                   
DEXTRCHNDL   000000000000250000000   035Endroutine000003500359980120170313                                                                                   
DEXTRCHNDL   000000000000260000000   035          000003500359980120170313                                                                                   
DEXTRCHNDL   000000000000270000001   035Mthroutine0000100Name(OpenTraceFile) Help('Open the stream file ready for input') Access(*Private)00359980120170313  
DEXTRCHNDL   000000000000270000002   000          0000016                                                                                                    
DEXTRCHNDL   000000000000280000000   035          000003500359980120170313                                                                                   
DEXTRCHNDL   000000000000290000001   035Use       0000100Builtin(Stm_File_Open) With_Args(#Com_owner.GetNextFile Append N N) To_Get(#FilHandle #io$sts)003599
DEXTRCHNDL   000000000000290000002   000          000002980120170313                                                                                         
DEXTRCHNDL   000000000000300000000   035          000003500359980120170313                                                                                   
DEXTRCHNDL   000000000000310000000   035Endroutine000003500359980120170313                                                                                   
DEXTRCHNDL   000000000000320000000   035          000003500359980120170313                                                                                   
DEXTRCHNDL   000000000000330000001   035Mthroutine0000100Name(TraceMessage) Help('Request to trace data received') Options(*Redefine)00359980120170313       
DEXTRCHNDL   000000000000330000002   000          0000011                                                                                                    
DEXTRCHNDL   000000000000340000000   035          000003500359980120170313                                                                                   
DEXTRCHNDL   000000000000350000001   035_PERFORM  0000100#Com_owner.WriteToFile( #ComponentName #Description #LineNumber #MessageText )00359980120170313     
DEXTRCHNDL   000000000000350000002   000          0000013                                                                                                    
DEXTRCHNDL   000000000000360000000   035          000003500359980120170313                                                                                   
DEXTRCHNDL   000000000000370000000   035Endroutine000003500359980120170313                                                                                   
DEXTRCHNDL   000000000000380000000   035          000003500359980120170313                                                                                   
DEXTRCHNDL   000000000000390000001   035Mthroutine0000100Name(WriteToFile) Help('Write an entry to the trace file') Access(*Private)00359980120170313        
DEXTRCHNDL   000000000000390000002   000          0000010                                                                                                    
DEXTRCHNDL   000000000000400000000   035Define_Map0000085For(*Input) Class(#prim_alph) Name(#ComponentName)00359980120170313                                 
DEXTRCHNDL   000000000000410000000   035Define_Map0000083For(*Input) Class(#prim_alph) Name(#Description)00359980120170313                                   
DEXTRCHNDL   000000000000420000000   035Define_Map0000082For(*Input) Class(#prim_nmbr) Name(#LineNumber)00359980120170313                                    
DEXTRCHNDL   000000000000430000000   035Define_Map0000079For(*Input) Class(#prim_alph) Name(#Message)00359980120170313                                       
DEXTRCHNDL   000000000000440000000   035          000003500359980120170313                                                                                   
DEXTRCHNDL   000000000000450000000   035Define_Com0000062Class(#prim_Dat) Name(#Now)00359980120170313                                                        
DEXTRCHNDL   000000000000460000000   035          000003500359980120170313                                                                                   
DEXTRCHNDL   000000000000470000001   035**********0000100#Message := #Now.now.AsLocalizedDateTime.AsDisplayString.Righttrim( "0" ) + #Tab + #ComponentName + 
DEXTRCHNDL   000000000000470000002   000          0000080#Tab + #LineNumber.asstring + #Tab + #Message00359980120170313                                      
DEXTRCHNDL   000000000000480000000   035_ASSIGN   0000055#Message := #Message00359980120170313                                                               
DEXTRCHNDL   000000000000490000000   035          000003500359980120170313                                                                                   
DEXTRCHNDL   000000000000500000001   035Use       0000100Builtin(Stm_File_Write) With_Args(#FilHandle #Message) To_Get(#io$sts)00359980120170313             
DEXTRCHNDL   000000000000500000002   000          0000005                                                                                                    
DEXTRCHNDL   000000000000510000000   035          000003500359980120170313                                                                                   
DEXTRCHNDL   000000000000520000000   035Endroutine000003500359980120170313                                                                                   
DEXTRCHNDL   000000000000530000000   035          000003500359980120170313                                                                                   
DEXTRCHNDL   000000000000540000000   035Mthroutine0000095Name(Terminate) Help('Tracing is ending') Options(*Redefine)00359980120170313                       
DEXTRCHNDL   000000000000550000000   035          000003500359980120170313                                                                                   
DEXTRCHNDL   000000000000560000000   035_INVOKE   0000060#Com_owner.CloseTraceFile00359980120170313                                                          
DEXTRCHNDL   000000000000570000000   035          000003500359980120170313                                                                                   
DEXTRCHNDL   000000000000580000000   035Endroutine000003500359980120170313                                                                                   
DEXTRCHNDL   000000000000590000000   035          000003500359980120170313                                                                                   
DEXTRCHNDL   000000000000600000000   035Mthroutine0000072Name(CloseTraceFile) Access(*Private)00359980120170313                                              
DEXTRCHNDL   000000000000610000000   035          000003500359980120170313                                                                                   
DEXTRCHNDL   000000000000620000000   035Use       0000096Builtin(Stm_File_Close) With_Args(#FilHandle) To_Get(#io$sts)00359980120170313                      
DEXTRCHNDL   000000000000630000000   035          000003500359980120170313                                                                                   
DEXTRCHNDL   000000000000640000000   035Endroutine000003500359980120170313                                                                                   
DEXTRCHNDL   000000000000650000000   035          000003500359980120170313                                                                                   
DEXTRCHNDL   000000000000660000000   035Mthroutine0000072Name(TracingState) Options(*Redefine)00359980120170313                                              
DEXTRCHNDL   000000000000670000000   035          000003500359980120170313                                                                                   
DEXTRCHNDL   000000000000680000000   035_ASSIGN   0000064#MessageTracingActive := True00359980120170313                                                      
DEXTRCHNDL   000000000000690000000   035          000003500359980120170313                                                                                   
DEXTRCHNDL   000000000000700000000   035Endroutine000003500359980120170313                                                                                   
DEXTRCHNDL   000000000000710000000   035          000003500359980120170313                                                                                   
DEXTRCHNDL   000000000000720000001   035Mthroutine0000100Name(GetNextFile) Help('Get the next available file number') Access(*Private)00359980120170313      
DEXTRCHNDL   000000000000720000002   000          0000012                                                                                                    
DEXTRCHNDL   000000000000730000000   035Define_Map0000079For(*Result) Class(#Prim_alph) Name(#Result)00359980120170313                                       
DEXTRCHNDL   000000000000740000000   035          000003500359980120170313                                                                                   
DEXTRCHNDL   000000000000750000000   035Define_Com0000069Class(#prim_nmbr) Name(#Extension)00359980120170313                                                 
DEXTRCHNDL   000000000000760000000   035          000003500359980120170313                                                                                   
DEXTRCHNDL   000000000000770000000   035**********0000084Naming is x_UserTrace.nnn where nnn is sequential00359980120170313                                  
DEXTRCHNDL   000000000000780000000   035Begin_Loop0000052Using(#Extension)00359980120170313                                                                  
DEXTRCHNDL   000000000000790000000   035          000003500359980120170313                                                                                   
DEXTRCHNDL   000000000000800000001   035_ASSIGN   0000100#Result := *Sys_dir + "x_UserTrace" + "." + #Extension.asstring.rightAdjust( 3 "0" )0035998012017031
DEXTRCHNDL   000000000000800000002   000          00000193                                                                                                   
DEXTRCHNDL   000000000000810000000   035          000003500359980120170313                                                                                   
DEXTRCHNDL   000000000000820000000   035**********0000090Stop looking once we find a filename that doesn't exist00359980120170313                            
DEXTRCHNDL   000000000000830000000   035Leave     0000076If(*Not #Com_owner.FileExists( #Result ))00359980120170313                                          
DEXTRCHNDL   000000000000840000000   035          000003500359980120170313                                                                                   
DEXTRCHNDL   000000000000850000000   035End_Loop  000003500359980120170313                                                                                   
DEXTRCHNDL   000000000000860000000   035          000003500359980120170313                                                                                   
DEXTRCHNDL   000000000000870000000   035Endroutine000003500359980120170313                                                                                   
DEXTRCHNDL   000000000000880000000   035          000003500359980120170313                                                                                   
DEXTRCHNDL   000000000000890000000   035Mthroutine0000068Name(FileExists) Access(*Private)00359980120170313                                                  
DEXTRCHNDL   000000000000900000000   035Define_Map0000076For(*Input) Class(#prim_alph) Name(#Path)00359980120170313                                          
DEXTRCHNDL   000000000000910000000   035Define_Map0000079For(*Result) Class(#prim_boln) Name(#Result)00359980120170313                                       
DEXTRCHNDL   000000000000920000000   035          000003500359980120170313                                                                                   
DEXTRCHNDL   000000000000930000001   035Use       0000100Builtin(OV_FILE_SERVICE) With_Args(Check_File #Path) To_Get(#io$sts)00359980120170313               
DEXTRCHNDL   000000000000930000002   000          0000003                                                                                                    
DEXTRCHNDL   000000000000940000000   035          000003500359980120170313                                                                                   
DEXTRCHNDL   000000000000950000000   035_ASSIGN   0000060#Result := (#io$sts = OK)00359980120170313                                                          
DEXTRCHNDL   000000000000960000000   035          000003500359980120170313                                                                                   
DEXTRCHNDL   000000000000970000000   035Endroutine000003500359980120170313                                                                                   
DEXTRCHNDL   000000000000980000000   035          000003500359980120170313                                                                                   
DEXTRCHNDL   000000000000990000000   035End_Com   000003500359980120170313                                                                                   
DEXTRCHNDL   000000000001000000000   035          000003500359980120170313                                                                                   
